{
	"MiniSocial.sol": {
		"MiniSocial": {
			"abi": [
				{
					"inputs": [
						{
							"internalType": "uint256",
							"name": "index",
							"type": "uint256"
						}
					],
					"name": "getPost",
					"outputs": [
						{
							"internalType": "string",
							"name": "",
							"type": "string"
						},
						{
							"internalType": "address",
							"name": "",
							"type": "address"
						}
					],
					"stateMutability": "view",
					"type": "function"
				},
				{
					"inputs": [],
					"name": "getTotalPosts",
					"outputs": [
						{
							"internalType": "uint256",
							"name": "",
							"type": "uint256"
						}
					],
					"stateMutability": "view",
					"type": "function"
				},
				{
					"inputs": [
						{
							"internalType": "uint256",
							"name": "",
							"type": "uint256"
						}
					],
					"name": "posts",
					"outputs": [
						{
							"internalType": "string",
							"name": "message",
							"type": "string"
						},
						{
							"internalType": "address",
							"name": "author",
							"type": "address"
						}
					],
					"stateMutability": "view",
					"type": "function"
				},
				{
					"inputs": [
						{
							"internalType": "string",
							"name": "_message",
							"type": "string"
						}
					],
					"name": "publishPost",
					"outputs": [],
					"stateMutability": "nonpayable",
					"type": "function"
				}
			],
			"devdoc": {
				"kind": "dev",
				"methods": {},
				"version": 1
			},
			"evm": {
				"assembly": "    /* \"MiniSocial.sol\":60:1014  contract MiniSocial {... */\n  mstore(0x40, 0x80)\n  callvalue\n  dup1\n  iszero\n  tag_1\n  jumpi\n  0x00\n  dup1\n  revert\ntag_1:\n  pop\n  dataSize(sub_0)\n  dup1\n  dataOffset(sub_0)\n  0x00\n  codecopy\n  0x00\n  return\nstop\n\nsub_0: assembly {\n        /* \"MiniSocial.sol\":60:1014  contract MiniSocial {... */\n      mstore(0x40, 0x80)\n      callvalue\n      dup1\n      iszero\n      tag_1\n      jumpi\n      0x00\n      dup1\n      revert\n    tag_1:\n      pop\n      jumpi(tag_2, lt(calldatasize, 0x04))\n      shr(0xe0, calldataload(0x00))\n      dup1\n      0x0b1e7f83\n      eq\n      tag_3\n      jumpi\n      dup1\n      0x40731c24\n      eq\n      tag_4\n      jumpi\n      dup1\n      0x5fe226b4\n      eq\n      tag_5\n      jumpi\n      dup1\n      0xc5719463\n      eq\n      tag_6\n      jumpi\n    tag_2:\n      0x00\n      dup1\n      revert\n        /* \"MiniSocial.sol\":272:291  Post[] public posts */\n    tag_3:\n      tag_7\n      0x04\n      dup1\n      calldatasize\n      sub\n      dup2\n      add\n      swap1\n      tag_8\n      swap2\n      swap1\n      tag_9\n      jump\t// in\n    tag_8:\n      tag_10\n      jump\t// in\n    tag_7:\n      mload(0x40)\n      tag_11\n      swap3\n      swap2\n      swap1\n      tag_12\n      jump\t// in\n    tag_11:\n      mload(0x40)\n      dup1\n      swap2\n      sub\n      swap1\n      return\n        /* \"MiniSocial.sol\":583:848  function getPost(uint index) public view returns (string memory, address) {... */\n    tag_4:\n      tag_13\n      0x04\n      dup1\n      calldatasize\n      sub\n      dup2\n      add\n      swap1\n      tag_14\n      swap2\n      swap1\n      tag_9\n      jump\t// in\n    tag_14:\n      tag_15\n      jump\t// in\n    tag_13:\n      mload(0x40)\n      tag_16\n      swap3\n      swap2\n      swap1\n      tag_12\n      jump\t// in\n    tag_16:\n      mload(0x40)\n      dup1\n      swap2\n      sub\n      swap1\n      return\n        /* \"MiniSocial.sol\":921:1011  function getTotalPosts() public view returns (uint) {... */\n    tag_5:\n      tag_17\n      tag_18\n      jump\t// in\n    tag_17:\n      mload(0x40)\n      tag_19\n      swap2\n      swap1\n      tag_20\n      jump\t// in\n    tag_19:\n      mload(0x40)\n      dup1\n      swap2\n      sub\n      swap1\n      return\n        /* \"MiniSocial.sol\":351:527  function publishPost(string memory _message) public {... */\n    tag_6:\n      tag_21\n      0x04\n      dup1\n      calldatasize\n      sub\n      dup2\n      add\n      swap1\n      tag_22\n      swap2\n      swap1\n      tag_23\n      jump\t// in\n    tag_22:\n      tag_24\n      jump\t// in\n    tag_21:\n      stop\n        /* \"MiniSocial.sol\":272:291  Post[] public posts */\n    tag_10:\n      0x00\n      dup2\n      dup2\n      sload\n      dup2\n      lt\n      tag_25\n      jumpi\n      0x00\n      dup1\n      revert\n    tag_25:\n      swap1\n      0x00\n      mstore\n      keccak256(0x00, 0x20)\n      swap1\n      0x02\n      mul\n      add\n      0x00\n      swap2\n      pop\n      swap1\n      pop\n      dup1\n      0x00\n      add\n      dup1\n      sload\n      tag_27\n      swap1\n      tag_28\n      jump\t// in\n    tag_27:\n      dup1\n      0x1f\n      add\n      0x20\n      dup1\n      swap2\n      div\n      mul\n      0x20\n      add\n      mload(0x40)\n      swap1\n      dup2\n      add\n      0x40\n      mstore\n      dup1\n      swap3\n      swap2\n      swap1\n      dup2\n      dup2\n      mstore\n      0x20\n      add\n      dup3\n      dup1\n      sload\n      tag_29\n      swap1\n      tag_28\n      jump\t// in\n    tag_29:\n      dup1\n      iszero\n      tag_30\n      jumpi\n      dup1\n      0x1f\n      lt\n      tag_31\n      jumpi\n      0x0100\n      dup1\n      dup4\n      sload\n      div\n      mul\n      dup4\n      mstore\n      swap2\n      0x20\n      add\n      swap2\n      jump(tag_30)\n    tag_31:\n      dup3\n      add\n      swap2\n      swap1\n      0x00\n      mstore\n      keccak256(0x00, 0x20)\n      swap1\n    tag_32:\n      dup2\n      sload\n      dup2\n      mstore\n      swap1\n      0x01\n      add\n      swap1\n      0x20\n      add\n      dup1\n      dup4\n      gt\n      tag_32\n      jumpi\n      dup3\n      swap1\n      sub\n      0x1f\n      and\n      dup3\n      add\n      swap2\n    tag_30:\n      pop\n      pop\n      pop\n      pop\n      pop\n      swap1\n      dup1\n      0x01\n      add\n      0x00\n      swap1\n      sload\n      swap1\n      0x0100\n      exp\n      swap1\n      div\n      0xffffffffffffffffffffffffffffffffffffffff\n      and\n      swap1\n      pop\n      dup3\n      jump\t// out\n        /* \"MiniSocial.sol\":583:848  function getPost(uint index) public view returns (string memory, address) {... */\n    tag_15:\n        /* \"MiniSocial.sol\":633:646  string memory */\n      0x60\n        /* \"MiniSocial.sol\":648:655  address */\n      0x00\n        /* \"MiniSocial.sol\":684:689  posts */\n      dup1\n        /* \"MiniSocial.sol\":684:696  posts.length */\n      dup1\n      sload\n      swap1\n      pop\n        /* \"MiniSocial.sol\":676:681  index */\n      dup4\n        /* \"MiniSocial.sol\":676:696  index < posts.length */\n      lt\n        /* \"MiniSocial.sol\":668:718  require(index < posts.length, \"Index hors limite\") */\n      tag_34\n      jumpi\n      mload(0x40)\n      0x08c379a000000000000000000000000000000000000000000000000000000000\n      dup2\n      mstore\n      0x04\n      add\n      tag_35\n      swap1\n      tag_36\n      jump\t// in\n    tag_35:\n      mload(0x40)\n      dup1\n      swap2\n      sub\n      swap1\n      revert\n    tag_34:\n        /* \"MiniSocial.sol\":763:780  Post storage post */\n      0x00\n        /* \"MiniSocial.sol\":783:788  posts */\n      dup1\n        /* \"MiniSocial.sol\":789:794  index */\n      dup5\n        /* \"MiniSocial.sol\":783:795  posts[index] */\n      dup2\n      sload\n      dup2\n      lt\n      tag_37\n      jumpi\n      tag_38\n      tag_39\n      jump\t// in\n    tag_38:\n    tag_37:\n      swap1\n      0x00\n      mstore\n      keccak256(0x00, 0x20)\n      swap1\n      0x02\n      mul\n      add\n        /* \"MiniSocial.sol\":763:795  Post storage post = posts[index] */\n      swap1\n      pop\n        /* \"MiniSocial.sol\":814:818  post */\n      dup1\n        /* \"MiniSocial.sol\":814:826  post.message */\n      0x00\n      add\n        /* \"MiniSocial.sol\":828:832  post */\n      dup2\n        /* \"MiniSocial.sol\":828:839  post.author */\n      0x01\n      add\n      0x00\n      swap1\n      sload\n      swap1\n      0x0100\n      exp\n      swap1\n      div\n      0xffffffffffffffffffffffffffffffffffffffff\n      and\n        /* \"MiniSocial.sol\":806:840  return (post.message, post.author) */\n      dup2\n      dup1\n      sload\n      tag_41\n      swap1\n      tag_28\n      jump\t// in\n    tag_41:\n      dup1\n      0x1f\n      add\n      0x20\n      dup1\n      swap2\n      div\n      mul\n      0x20\n      add\n      mload(0x40)\n      swap1\n      dup2\n      add\n      0x40\n      mstore\n      dup1\n      swap3\n      swap2\n      swap1\n      dup2\n      dup2\n      mstore\n      0x20\n      add\n      dup3\n      dup1\n      sload\n      tag_42\n      swap1\n      tag_28\n      jump\t// in\n    tag_42:\n      dup1\n      iszero\n      tag_43\n      jumpi\n      dup1\n      0x1f\n      lt\n      tag_44\n      jumpi\n      0x0100\n      dup1\n      dup4\n      sload\n      div\n      mul\n      dup4\n      mstore\n      swap2\n      0x20\n      add\n      swap2\n      jump(tag_43)\n    tag_44:\n      dup3\n      add\n      swap2\n      swap1\n      0x00\n      mstore\n      keccak256(0x00, 0x20)\n      swap1\n    tag_45:\n      dup2\n      sload\n      dup2\n      mstore\n      swap1\n      0x01\n      add\n      swap1\n      0x20\n      add\n      dup1\n      dup4\n      gt\n      tag_45\n      jumpi\n      dup3\n      swap1\n      sub\n      0x1f\n      and\n      dup3\n      add\n      swap2\n    tag_43:\n      pop\n      pop\n      pop\n      pop\n      pop\n      swap2\n      pop\n      swap3\n      pop\n      swap3\n      pop\n      pop\n        /* \"MiniSocial.sol\":583:848  function getPost(uint index) public view returns (string memory, address) {... */\n      swap2\n      pop\n      swap2\n      jump\t// out\n        /* \"MiniSocial.sol\":921:1011  function getTotalPosts() public view returns (uint) {... */\n    tag_18:\n        /* \"MiniSocial.sol\":967:971  uint */\n      0x00\n        /* \"MiniSocial.sol\":991:996  posts */\n      dup1\n        /* \"MiniSocial.sol\":991:1003  posts.length */\n      dup1\n      sload\n      swap1\n      pop\n        /* \"MiniSocial.sol\":984:1003  return posts.length */\n      swap1\n      pop\n        /* \"MiniSocial.sol\":921:1011  function getTotalPosts() public view returns (uint) {... */\n      swap1\n      jump\t// out\n        /* \"MiniSocial.sol\":351:527  function publishPost(string memory _message) public {... */\n    tag_24:\n        /* \"MiniSocial.sol\":481:486  posts */\n      0x00\n        /* \"MiniSocial.sol\":492:518  Post(_message, msg.sender) */\n      mload(0x40)\n      dup1\n      0x40\n      add\n      0x40\n      mstore\n      dup1\n        /* \"MiniSocial.sol\":497:505  _message */\n      dup4\n        /* \"MiniSocial.sol\":492:518  Post(_message, msg.sender) */\n      dup2\n      mstore\n      0x20\n      add\n        /* \"MiniSocial.sol\":507:517  msg.sender */\n      caller\n        /* \"MiniSocial.sol\":492:518  Post(_message, msg.sender) */\n      0xffffffffffffffffffffffffffffffffffffffff\n      and\n      dup2\n      mstore\n      pop\n        /* \"MiniSocial.sol\":481:519  posts.push(Post(_message, msg.sender)) */\n      swap1\n      dup1\n      0x01\n      dup2\n      sload\n      add\n      dup1\n      dup3\n      sstore\n      dup1\n      swap2\n      pop\n      pop\n      0x01\n      swap1\n      sub\n      swap1\n      0x00\n      mstore\n      keccak256(0x00, 0x20)\n      swap1\n      0x02\n      mul\n      add\n      0x00\n      swap1\n      swap2\n      swap1\n      swap2\n      swap1\n      swap2\n      pop\n      0x00\n      dup3\n      add\n      mload\n      dup2\n      0x00\n      add\n      swap1\n      dup2\n      tag_49\n      swap2\n      swap1\n      tag_50\n      jump\t// in\n    tag_49:\n      pop\n      0x20\n      dup3\n      add\n      mload\n      dup2\n      0x01\n      add\n      exp(0x0100, 0x00)\n      dup2\n      sload\n      dup2\n      0xffffffffffffffffffffffffffffffffffffffff\n      mul\n      not\n      and\n      swap1\n      dup4\n      0xffffffffffffffffffffffffffffffffffffffff\n      and\n      mul\n      or\n      swap1\n      sstore\n      pop\n      pop\n      pop\n        /* \"MiniSocial.sol\":351:527  function publishPost(string memory _message) public {... */\n      pop\n      jump\t// out\n        /* \"#utility.yul\":7:82   */\n    tag_51:\n        /* \"#utility.yul\":40:46   */\n      0x00\n        /* \"#utility.yul\":73:75   */\n      0x40\n        /* \"#utility.yul\":67:76   */\n      mload\n        /* \"#utility.yul\":57:76   */\n      swap1\n      pop\n        /* \"#utility.yul\":7:82   */\n      swap1\n      jump\t// out\n        /* \"#utility.yul\":88:205   */\n    tag_52:\n        /* \"#utility.yul\":197:198   */\n      0x00\n        /* \"#utility.yul\":194:195   */\n      dup1\n        /* \"#utility.yul\":187:199   */\n      revert\n        /* \"#utility.yul\":211:328   */\n    tag_53:\n        /* \"#utility.yul\":320:321   */\n      0x00\n        /* \"#utility.yul\":317:318   */\n      dup1\n        /* \"#utility.yul\":310:322   */\n      revert\n        /* \"#utility.yul\":334:411   */\n    tag_54:\n        /* \"#utility.yul\":371:378   */\n      0x00\n        /* \"#utility.yul\":400:405   */\n      dup2\n        /* \"#utility.yul\":389:405   */\n      swap1\n      pop\n        /* \"#utility.yul\":334:411   */\n      swap2\n      swap1\n      pop\n      jump\t// out\n        /* \"#utility.yul\":417:539   */\n    tag_55:\n        /* \"#utility.yul\":490:514   */\n      tag_99\n        /* \"#utility.yul\":508:513   */\n      dup2\n        /* \"#utility.yul\":490:514   */\n      tag_54\n      jump\t// in\n    tag_99:\n        /* \"#utility.yul\":483:488   */\n      dup2\n        /* \"#utility.yul\":480:515   */\n      eq\n        /* \"#utility.yul\":470:533   */\n      tag_100\n      jumpi\n        /* \"#utility.yul\":529:530   */\n      0x00\n        /* \"#utility.yul\":526:527   */\n      dup1\n        /* \"#utility.yul\":519:531   */\n      revert\n        /* \"#utility.yul\":470:533   */\n    tag_100:\n        /* \"#utility.yul\":417:539   */\n      pop\n      jump\t// out\n        /* \"#utility.yul\":545:684   */\n    tag_56:\n        /* \"#utility.yul\":591:596   */\n      0x00\n        /* \"#utility.yul\":629:635   */\n      dup2\n        /* \"#utility.yul\":616:636   */\n      calldataload\n        /* \"#utility.yul\":607:636   */\n      swap1\n      pop\n        /* \"#utility.yul\":645:678   */\n      tag_102\n        /* \"#utility.yul\":672:677   */\n      dup2\n        /* \"#utility.yul\":645:678   */\n      tag_55\n      jump\t// in\n    tag_102:\n        /* \"#utility.yul\":545:684   */\n      swap3\n      swap2\n      pop\n      pop\n      jump\t// out\n        /* \"#utility.yul\":690:1019   */\n    tag_9:\n        /* \"#utility.yul\":749:755   */\n      0x00\n        /* \"#utility.yul\":798:800   */\n      0x20\n        /* \"#utility.yul\":786:795   */\n      dup3\n        /* \"#utility.yul\":777:784   */\n      dup5\n        /* \"#utility.yul\":773:796   */\n      sub\n        /* \"#utility.yul\":769:801   */\n      slt\n        /* \"#utility.yul\":766:885   */\n      iszero\n      tag_104\n      jumpi\n        /* \"#utility.yul\":804:883   */\n      tag_105\n      tag_52\n      jump\t// in\n    tag_105:\n        /* \"#utility.yul\":766:885   */\n    tag_104:\n        /* \"#utility.yul\":924:925   */\n      0x00\n        /* \"#utility.yul\":949:1002   */\n      tag_106\n        /* \"#utility.yul\":994:1001   */\n      dup5\n        /* \"#utility.yul\":985:991   */\n      dup3\n        /* \"#utility.yul\":974:983   */\n      dup6\n        /* \"#utility.yul\":970:992   */\n      add\n        /* \"#utility.yul\":949:1002   */\n      tag_56\n      jump\t// in\n    tag_106:\n        /* \"#utility.yul\":939:1002   */\n      swap2\n      pop\n        /* \"#utility.yul\":895:1012   */\n      pop\n        /* \"#utility.yul\":690:1019   */\n      swap3\n      swap2\n      pop\n      pop\n      jump\t// out\n        /* \"#utility.yul\":1025:1124   */\n    tag_57:\n        /* \"#utility.yul\":1077:1083   */\n      0x00\n        /* \"#utility.yul\":1111:1116   */\n      dup2\n        /* \"#utility.yul\":1105:1117   */\n      mload\n        /* \"#utility.yul\":1095:1117   */\n      swap1\n      pop\n        /* \"#utility.yul\":1025:1124   */\n      swap2\n      swap1\n      pop\n      jump\t// out\n        /* \"#utility.yul\":1130:1299   */\n    tag_58:\n        /* \"#utility.yul\":1214:1225   */\n      0x00\n        /* \"#utility.yul\":1248:1254   */\n      dup3\n        /* \"#utility.yul\":1243:1246   */\n      dup3\n        /* \"#utility.yul\":1236:1255   */\n      mstore\n        /* \"#utility.yul\":1288:1292   */\n      0x20\n        /* \"#utility.yul\":1283:1286   */\n      dup3\n        /* \"#utility.yul\":1279:1293   */\n      add\n        /* \"#utility.yul\":1264:1293   */\n      swap1\n      pop\n        /* \"#utility.yul\":1130:1299   */\n      swap3\n      swap2\n      pop\n      pop\n      jump\t// out\n        /* \"#utility.yul\":1305:1444   */\n    tag_59:\n        /* \"#utility.yul\":1394:1400   */\n      dup3\n        /* \"#utility.yul\":1389:1392   */\n      dup2\n        /* \"#utility.yul\":1384:1387   */\n      dup4\n        /* \"#utility.yul\":1378:1401   */\n      mcopy\n        /* \"#utility.yul\":1435:1436   */\n      0x00\n        /* \"#utility.yul\":1426:1432   */\n      dup4\n        /* \"#utility.yul\":1421:1424   */\n      dup4\n        /* \"#utility.yul\":1417:1433   */\n      add\n        /* \"#utility.yul\":1410:1437   */\n      mstore\n        /* \"#utility.yul\":1305:1444   */\n      pop\n      pop\n      pop\n      jump\t// out\n        /* \"#utility.yul\":1450:1552   */\n    tag_60:\n        /* \"#utility.yul\":1491:1497   */\n      0x00\n        /* \"#utility.yul\":1542:1544   */\n      0x1f\n        /* \"#utility.yul\":1538:1545   */\n      not\n        /* \"#utility.yul\":1533:1535   */\n      0x1f\n        /* \"#utility.yul\":1526:1531   */\n      dup4\n        /* \"#utility.yul\":1522:1536   */\n      add\n        /* \"#utility.yul\":1518:1546   */\n      and\n        /* \"#utility.yul\":1508:1546   */\n      swap1\n      pop\n        /* \"#utility.yul\":1450:1552   */\n      swap2\n      swap1\n      pop\n      jump\t// out\n        /* \"#utility.yul\":1558:1935   */\n    tag_61:\n        /* \"#utility.yul\":1646:1649   */\n      0x00\n        /* \"#utility.yul\":1674:1713   */\n      tag_112\n        /* \"#utility.yul\":1707:1712   */\n      dup3\n        /* \"#utility.yul\":1674:1713   */\n      tag_57\n      jump\t// in\n    tag_112:\n        /* \"#utility.yul\":1729:1800   */\n      tag_113\n        /* \"#utility.yul\":1793:1799   */\n      dup2\n        /* \"#utility.yul\":1788:1791   */\n      dup6\n        /* \"#utility.yul\":1729:1800   */\n      tag_58\n      jump\t// in\n    tag_113:\n        /* \"#utility.yul\":1722:1800   */\n      swap4\n      pop\n        /* \"#utility.yul\":1809:1874   */\n      tag_114\n        /* \"#utility.yul\":1867:1873   */\n      dup2\n        /* \"#utility.yul\":1862:1865   */\n      dup6\n        /* \"#utility.yul\":1855:1859   */\n      0x20\n        /* \"#utility.yul\":1848:1853   */\n      dup7\n        /* \"#utility.yul\":1844:1860   */\n      add\n        /* \"#utility.yul\":1809:1874   */\n      tag_59\n      jump\t// in\n    tag_114:\n        /* \"#utility.yul\":1899:1928   */\n      tag_115\n        /* \"#utility.yul\":1921:1927   */\n      dup2\n        /* \"#utility.yul\":1899:1928   */\n      tag_60\n      jump\t// in\n    tag_115:\n        /* \"#utility.yul\":1894:1897   */\n      dup5\n        /* \"#utility.yul\":1890:1929   */\n      add\n        /* \"#utility.yul\":1883:1929   */\n      swap2\n      pop\n        /* \"#utility.yul\":1650:1935   */\n      pop\n        /* \"#utility.yul\":1558:1935   */\n      swap3\n      swap2\n      pop\n      pop\n      jump\t// out\n        /* \"#utility.yul\":1941:2067   */\n    tag_62:\n        /* \"#utility.yul\":1978:1985   */\n      0x00\n        /* \"#utility.yul\":2018:2060   */\n      0xffffffffffffffffffffffffffffffffffffffff\n        /* \"#utility.yul\":2011:2016   */\n      dup3\n        /* \"#utility.yul\":2007:2061   */\n      and\n        /* \"#utility.yul\":1996:2061   */\n      swap1\n      pop\n        /* \"#utility.yul\":1941:2067   */\n      swap2\n      swap1\n      pop\n      jump\t// out\n        /* \"#utility.yul\":2073:2169   */\n    tag_63:\n        /* \"#utility.yul\":2110:2117   */\n      0x00\n        /* \"#utility.yul\":2139:2163   */\n      tag_118\n        /* \"#utility.yul\":2157:2162   */\n      dup3\n        /* \"#utility.yul\":2139:2163   */\n      tag_62\n      jump\t// in\n    tag_118:\n        /* \"#utility.yul\":2128:2163   */\n      swap1\n      pop\n        /* \"#utility.yul\":2073:2169   */\n      swap2\n      swap1\n      pop\n      jump\t// out\n        /* \"#utility.yul\":2175:2293   */\n    tag_64:\n        /* \"#utility.yul\":2262:2286   */\n      tag_120\n        /* \"#utility.yul\":2280:2285   */\n      dup2\n        /* \"#utility.yul\":2262:2286   */\n      tag_63\n      jump\t// in\n    tag_120:\n        /* \"#utility.yul\":2257:2260   */\n      dup3\n        /* \"#utility.yul\":2250:2287   */\n      mstore\n        /* \"#utility.yul\":2175:2293   */\n      pop\n      pop\n      jump\t// out\n        /* \"#utility.yul\":2299:2722   */\n    tag_12:\n        /* \"#utility.yul\":2440:2444   */\n      0x00\n        /* \"#utility.yul\":2478:2480   */\n      0x40\n        /* \"#utility.yul\":2467:2476   */\n      dup3\n        /* \"#utility.yul\":2463:2481   */\n      add\n        /* \"#utility.yul\":2455:2481   */\n      swap1\n      pop\n        /* \"#utility.yul\":2527:2536   */\n      dup2\n        /* \"#utility.yul\":2521:2525   */\n      dup2\n        /* \"#utility.yul\":2517:2537   */\n      sub\n        /* \"#utility.yul\":2513:2514   */\n      0x00\n        /* \"#utility.yul\":2502:2511   */\n      dup4\n        /* \"#utility.yul\":2498:2515   */\n      add\n        /* \"#utility.yul\":2491:2538   */\n      mstore\n        /* \"#utility.yul\":2555:2633   */\n      tag_122\n        /* \"#utility.yul\":2628:2632   */\n      dup2\n        /* \"#utility.yul\":2619:2625   */\n      dup6\n        /* \"#utility.yul\":2555:2633   */\n      tag_61\n      jump\t// in\n    tag_122:\n        /* \"#utility.yul\":2547:2633   */\n      swap1\n      pop\n        /* \"#utility.yul\":2643:2715   */\n      tag_123\n        /* \"#utility.yul\":2711:2713   */\n      0x20\n        /* \"#utility.yul\":2700:2709   */\n      dup4\n        /* \"#utility.yul\":2696:2714   */\n      add\n        /* \"#utility.yul\":2687:2693   */\n      dup5\n        /* \"#utility.yul\":2643:2715   */\n      tag_64\n      jump\t// in\n    tag_123:\n        /* \"#utility.yul\":2299:2722   */\n      swap4\n      swap3\n      pop\n      pop\n      pop\n      jump\t// out\n        /* \"#utility.yul\":2728:2846   */\n    tag_65:\n        /* \"#utility.yul\":2815:2839   */\n      tag_125\n        /* \"#utility.yul\":2833:2838   */\n      dup2\n        /* \"#utility.yul\":2815:2839   */\n      tag_54\n      jump\t// in\n    tag_125:\n        /* \"#utility.yul\":2810:2813   */\n      dup3\n        /* \"#utility.yul\":2803:2840   */\n      mstore\n        /* \"#utility.yul\":2728:2846   */\n      pop\n      pop\n      jump\t// out\n        /* \"#utility.yul\":2852:3074   */\n    tag_20:\n        /* \"#utility.yul\":2945:2949   */\n      0x00\n        /* \"#utility.yul\":2983:2985   */\n      0x20\n        /* \"#utility.yul\":2972:2981   */\n      dup3\n        /* \"#utility.yul\":2968:2986   */\n      add\n        /* \"#utility.yul\":2960:2986   */\n      swap1\n      pop\n        /* \"#utility.yul\":2996:3067   */\n      tag_127\n        /* \"#utility.yul\":3064:3065   */\n      0x00\n        /* \"#utility.yul\":3053:3062   */\n      dup4\n        /* \"#utility.yul\":3049:3066   */\n      add\n        /* \"#utility.yul\":3040:3046   */\n      dup5\n        /* \"#utility.yul\":2996:3067   */\n      tag_65\n      jump\t// in\n    tag_127:\n        /* \"#utility.yul\":2852:3074   */\n      swap3\n      swap2\n      pop\n      pop\n      jump\t// out\n        /* \"#utility.yul\":3080:3197   */\n    tag_66:\n        /* \"#utility.yul\":3189:3190   */\n      0x00\n        /* \"#utility.yul\":3186:3187   */\n      dup1\n        /* \"#utility.yul\":3179:3191   */\n      revert\n        /* \"#utility.yul\":3203:3320   */\n    tag_67:\n        /* \"#utility.yul\":3312:3313   */\n      0x00\n        /* \"#utility.yul\":3309:3310   */\n      dup1\n        /* \"#utility.yul\":3302:3314   */\n      revert\n        /* \"#utility.yul\":3326:3506   */\n    tag_68:\n        /* \"#utility.yul\":3374:3451   */\n      0x4e487b7100000000000000000000000000000000000000000000000000000000\n        /* \"#utility.yul\":3371:3372   */\n      0x00\n        /* \"#utility.yul\":3364:3452   */\n      mstore\n        /* \"#utility.yul\":3471:3475   */\n      0x41\n        /* \"#utility.yul\":3468:3469   */\n      0x04\n        /* \"#utility.yul\":3461:3476   */\n      mstore\n        /* \"#utility.yul\":3495:3499   */\n      0x24\n        /* \"#utility.yul\":3492:3493   */\n      0x00\n        /* \"#utility.yul\":3485:3500   */\n      revert\n        /* \"#utility.yul\":3512:3793   */\n    tag_69:\n        /* \"#utility.yul\":3595:3622   */\n      tag_132\n        /* \"#utility.yul\":3617:3621   */\n      dup3\n        /* \"#utility.yul\":3595:3622   */\n      tag_60\n      jump\t// in\n    tag_132:\n        /* \"#utility.yul\":3587:3593   */\n      dup2\n        /* \"#utility.yul\":3583:3623   */\n      add\n        /* \"#utility.yul\":3725:3731   */\n      dup2\n        /* \"#utility.yul\":3713:3723   */\n      dup2\n        /* \"#utility.yul\":3710:3732   */\n      lt\n        /* \"#utility.yul\":3689:3707   */\n      0xffffffffffffffff\n        /* \"#utility.yul\":3677:3687   */\n      dup3\n        /* \"#utility.yul\":3674:3708   */\n      gt\n        /* \"#utility.yul\":3671:3733   */\n      or\n        /* \"#utility.yul\":3668:3756   */\n      iszero\n      tag_133\n      jumpi\n        /* \"#utility.yul\":3736:3754   */\n      tag_134\n      tag_68\n      jump\t// in\n    tag_134:\n        /* \"#utility.yul\":3668:3756   */\n    tag_133:\n        /* \"#utility.yul\":3776:3786   */\n      dup1\n        /* \"#utility.yul\":3772:3774   */\n      0x40\n        /* \"#utility.yul\":3765:3787   */\n      mstore\n        /* \"#utility.yul\":3555:3793   */\n      pop\n        /* \"#utility.yul\":3512:3793   */\n      pop\n      pop\n      jump\t// out\n        /* \"#utility.yul\":3799:3928   */\n    tag_70:\n        /* \"#utility.yul\":3833:3839   */\n      0x00\n        /* \"#utility.yul\":3860:3880   */\n      tag_136\n      tag_51\n      jump\t// in\n    tag_136:\n        /* \"#utility.yul\":3850:3880   */\n      swap1\n      pop\n        /* \"#utility.yul\":3889:3922   */\n      tag_137\n        /* \"#utility.yul\":3917:3921   */\n      dup3\n        /* \"#utility.yul\":3909:3915   */\n      dup3\n        /* \"#utility.yul\":3889:3922   */\n      tag_69\n      jump\t// in\n    tag_137:\n        /* \"#utility.yul\":3799:3928   */\n      swap2\n      swap1\n      pop\n      jump\t// out\n        /* \"#utility.yul\":3934:4242   */\n    tag_71:\n        /* \"#utility.yul\":3996:4000   */\n      0x00\n        /* \"#utility.yul\":4086:4104   */\n      0xffffffffffffffff\n        /* \"#utility.yul\":4078:4084   */\n      dup3\n        /* \"#utility.yul\":4075:4105   */\n      gt\n        /* \"#utility.yul\":4072:4128   */\n      iszero\n      tag_139\n      jumpi\n        /* \"#utility.yul\":4108:4126   */\n      tag_140\n      tag_68\n      jump\t// in\n    tag_140:\n        /* \"#utility.yul\":4072:4128   */\n    tag_139:\n        /* \"#utility.yul\":4146:4175   */\n      tag_141\n        /* \"#utility.yul\":4168:4174   */\n      dup3\n        /* \"#utility.yul\":4146:4175   */\n      tag_60\n      jump\t// in\n    tag_141:\n        /* \"#utility.yul\":4138:4175   */\n      swap1\n      pop\n        /* \"#utility.yul\":4230:4234   */\n      0x20\n        /* \"#utility.yul\":4224:4228   */\n      dup2\n        /* \"#utility.yul\":4220:4235   */\n      add\n        /* \"#utility.yul\":4212:4235   */\n      swap1\n      pop\n        /* \"#utility.yul\":3934:4242   */\n      swap2\n      swap1\n      pop\n      jump\t// out\n        /* \"#utility.yul\":4248:4396   */\n    tag_72:\n        /* \"#utility.yul\":4346:4352   */\n      dup3\n        /* \"#utility.yul\":4341:4344   */\n      dup2\n        /* \"#utility.yul\":4336:4339   */\n      dup4\n        /* \"#utility.yul\":4323:4353   */\n      calldatacopy\n        /* \"#utility.yul\":4387:4388   */\n      0x00\n        /* \"#utility.yul\":4378:4384   */\n      dup4\n        /* \"#utility.yul\":4373:4376   */\n      dup4\n        /* \"#utility.yul\":4369:4385   */\n      add\n        /* \"#utility.yul\":4362:4389   */\n      mstore\n        /* \"#utility.yul\":4248:4396   */\n      pop\n      pop\n      pop\n      jump\t// out\n        /* \"#utility.yul\":4402:4827   */\n    tag_73:\n        /* \"#utility.yul\":4480:4485   */\n      0x00\n        /* \"#utility.yul\":4505:4571   */\n      tag_144\n        /* \"#utility.yul\":4521:4570   */\n      tag_145\n        /* \"#utility.yul\":4563:4569   */\n      dup5\n        /* \"#utility.yul\":4521:4570   */\n      tag_71\n      jump\t// in\n    tag_145:\n        /* \"#utility.yul\":4505:4571   */\n      tag_70\n      jump\t// in\n    tag_144:\n        /* \"#utility.yul\":4496:4571   */\n      swap1\n      pop\n        /* \"#utility.yul\":4594:4600   */\n      dup3\n        /* \"#utility.yul\":4587:4592   */\n      dup2\n        /* \"#utility.yul\":4580:4601   */\n      mstore\n        /* \"#utility.yul\":4632:4636   */\n      0x20\n        /* \"#utility.yul\":4625:4630   */\n      dup2\n        /* \"#utility.yul\":4621:4637   */\n      add\n        /* \"#utility.yul\":4670:4673   */\n      dup5\n        /* \"#utility.yul\":4661:4667   */\n      dup5\n        /* \"#utility.yul\":4656:4659   */\n      dup5\n        /* \"#utility.yul\":4652:4668   */\n      add\n        /* \"#utility.yul\":4649:4674   */\n      gt\n        /* \"#utility.yul\":4646:4758   */\n      iszero\n      tag_146\n      jumpi\n        /* \"#utility.yul\":4677:4756   */\n      tag_147\n      tag_67\n      jump\t// in\n    tag_147:\n        /* \"#utility.yul\":4646:4758   */\n    tag_146:\n        /* \"#utility.yul\":4767:4821   */\n      tag_148\n        /* \"#utility.yul\":4814:4820   */\n      dup5\n        /* \"#utility.yul\":4809:4812   */\n      dup3\n        /* \"#utility.yul\":4804:4807   */\n      dup6\n        /* \"#utility.yul\":4767:4821   */\n      tag_72\n      jump\t// in\n    tag_148:\n        /* \"#utility.yul\":4486:4827   */\n      pop\n        /* \"#utility.yul\":4402:4827   */\n      swap4\n      swap3\n      pop\n      pop\n      pop\n      jump\t// out\n        /* \"#utility.yul\":4847:5187   */\n    tag_74:\n        /* \"#utility.yul\":4903:4908   */\n      0x00\n        /* \"#utility.yul\":4952:4955   */\n      dup3\n        /* \"#utility.yul\":4945:4949   */\n      0x1f\n        /* \"#utility.yul\":4937:4943   */\n      dup4\n        /* \"#utility.yul\":4933:4950   */\n      add\n        /* \"#utility.yul\":4929:4956   */\n      slt\n        /* \"#utility.yul\":4919:5041   */\n      tag_150\n      jumpi\n        /* \"#utility.yul\":4960:5039   */\n      tag_151\n      tag_66\n      jump\t// in\n    tag_151:\n        /* \"#utility.yul\":4919:5041   */\n    tag_150:\n        /* \"#utility.yul\":5077:5083   */\n      dup2\n        /* \"#utility.yul\":5064:5084   */\n      calldataload\n        /* \"#utility.yul\":5102:5181   */\n      tag_152\n        /* \"#utility.yul\":5177:5180   */\n      dup5\n        /* \"#utility.yul\":5169:5175   */\n      dup3\n        /* \"#utility.yul\":5162:5166   */\n      0x20\n        /* \"#utility.yul\":5154:5160   */\n      dup7\n        /* \"#utility.yul\":5150:5167   */\n      add\n        /* \"#utility.yul\":5102:5181   */\n      tag_73\n      jump\t// in\n    tag_152:\n        /* \"#utility.yul\":5093:5181   */\n      swap2\n      pop\n        /* \"#utility.yul\":4909:5187   */\n      pop\n        /* \"#utility.yul\":4847:5187   */\n      swap3\n      swap2\n      pop\n      pop\n      jump\t// out\n        /* \"#utility.yul\":5193:5702   */\n    tag_23:\n        /* \"#utility.yul\":5262:5268   */\n      0x00\n        /* \"#utility.yul\":5311:5313   */\n      0x20\n        /* \"#utility.yul\":5299:5308   */\n      dup3\n        /* \"#utility.yul\":5290:5297   */\n      dup5\n        /* \"#utility.yul\":5286:5309   */\n      sub\n        /* \"#utility.yul\":5282:5314   */\n      slt\n        /* \"#utility.yul\":5279:5398   */\n      iszero\n      tag_154\n      jumpi\n        /* \"#utility.yul\":5317:5396   */\n      tag_155\n      tag_52\n      jump\t// in\n    tag_155:\n        /* \"#utility.yul\":5279:5398   */\n    tag_154:\n        /* \"#utility.yul\":5465:5466   */\n      0x00\n        /* \"#utility.yul\":5454:5463   */\n      dup3\n        /* \"#utility.yul\":5450:5467   */\n      add\n        /* \"#utility.yul\":5437:5468   */\n      calldataload\n        /* \"#utility.yul\":5495:5513   */\n      0xffffffffffffffff\n        /* \"#utility.yul\":5487:5493   */\n      dup2\n        /* \"#utility.yul\":5484:5514   */\n      gt\n        /* \"#utility.yul\":5481:5598   */\n      iszero\n      tag_156\n      jumpi\n        /* \"#utility.yul\":5517:5596   */\n      tag_157\n      tag_53\n      jump\t// in\n    tag_157:\n        /* \"#utility.yul\":5481:5598   */\n    tag_156:\n        /* \"#utility.yul\":5622:5685   */\n      tag_158\n        /* \"#utility.yul\":5677:5684   */\n      dup5\n        /* \"#utility.yul\":5668:5674   */\n      dup3\n        /* \"#utility.yul\":5657:5666   */\n      dup6\n        /* \"#utility.yul\":5653:5675   */\n      add\n        /* \"#utility.yul\":5622:5685   */\n      tag_74\n      jump\t// in\n    tag_158:\n        /* \"#utility.yul\":5612:5685   */\n      swap2\n      pop\n        /* \"#utility.yul\":5408:5695   */\n      pop\n        /* \"#utility.yul\":5193:5702   */\n      swap3\n      swap2\n      pop\n      pop\n      jump\t// out\n        /* \"#utility.yul\":5708:5888   */\n    tag_75:\n        /* \"#utility.yul\":5756:5833   */\n      0x4e487b7100000000000000000000000000000000000000000000000000000000\n        /* \"#utility.yul\":5753:5754   */\n      0x00\n        /* \"#utility.yul\":5746:5834   */\n      mstore\n        /* \"#utility.yul\":5853:5857   */\n      0x22\n        /* \"#utility.yul\":5850:5851   */\n      0x04\n        /* \"#utility.yul\":5843:5858   */\n      mstore\n        /* \"#utility.yul\":5877:5881   */\n      0x24\n        /* \"#utility.yul\":5874:5875   */\n      0x00\n        /* \"#utility.yul\":5867:5882   */\n      revert\n        /* \"#utility.yul\":5894:6214   */\n    tag_28:\n        /* \"#utility.yul\":5938:5944   */\n      0x00\n        /* \"#utility.yul\":5975:5976   */\n      0x02\n        /* \"#utility.yul\":5969:5973   */\n      dup3\n        /* \"#utility.yul\":5965:5977   */\n      div\n        /* \"#utility.yul\":5955:5977   */\n      swap1\n      pop\n        /* \"#utility.yul\":6022:6023   */\n      0x01\n        /* \"#utility.yul\":6016:6020   */\n      dup3\n        /* \"#utility.yul\":6012:6024   */\n      and\n        /* \"#utility.yul\":6043:6061   */\n      dup1\n        /* \"#utility.yul\":6033:6114   */\n      tag_161\n      jumpi\n        /* \"#utility.yul\":6099:6103   */\n      0x7f\n        /* \"#utility.yul\":6091:6097   */\n      dup3\n        /* \"#utility.yul\":6087:6104   */\n      and\n        /* \"#utility.yul\":6077:6104   */\n      swap2\n      pop\n        /* \"#utility.yul\":6033:6114   */\n    tag_161:\n        /* \"#utility.yul\":6161:6163   */\n      0x20\n        /* \"#utility.yul\":6153:6159   */\n      dup3\n        /* \"#utility.yul\":6150:6164   */\n      lt\n        /* \"#utility.yul\":6130:6148   */\n      dup2\n        /* \"#utility.yul\":6127:6165   */\n      sub\n        /* \"#utility.yul\":6124:6208   */\n      tag_162\n      jumpi\n        /* \"#utility.yul\":6180:6198   */\n      tag_163\n      tag_75\n      jump\t// in\n    tag_163:\n        /* \"#utility.yul\":6124:6208   */\n    tag_162:\n        /* \"#utility.yul\":5945:6214   */\n      pop\n        /* \"#utility.yul\":5894:6214   */\n      swap2\n      swap1\n      pop\n      jump\t// out\n        /* \"#utility.yul\":6220:6387   */\n    tag_76:\n        /* \"#utility.yul\":6360:6379   */\n      0x496e64657820686f7273206c696d697465000000000000000000000000000000\n        /* \"#utility.yul\":6356:6357   */\n      0x00\n        /* \"#utility.yul\":6348:6354   */\n      dup3\n        /* \"#utility.yul\":6344:6358   */\n      add\n        /* \"#utility.yul\":6337:6380   */\n      mstore\n        /* \"#utility.yul\":6220:6387   */\n      pop\n      jump\t// out\n        /* \"#utility.yul\":6393:6759   */\n    tag_77:\n        /* \"#utility.yul\":6535:6538   */\n      0x00\n        /* \"#utility.yul\":6556:6623   */\n      tag_166\n        /* \"#utility.yul\":6620:6622   */\n      0x11\n        /* \"#utility.yul\":6615:6618   */\n      dup4\n        /* \"#utility.yul\":6556:6623   */\n      tag_58\n      jump\t// in\n    tag_166:\n        /* \"#utility.yul\":6549:6623   */\n      swap2\n      pop\n        /* \"#utility.yul\":6632:6725   */\n      tag_167\n        /* \"#utility.yul\":6721:6724   */\n      dup3\n        /* \"#utility.yul\":6632:6725   */\n      tag_76\n      jump\t// in\n    tag_167:\n        /* \"#utility.yul\":6750:6752   */\n      0x20\n        /* \"#utility.yul\":6745:6748   */\n      dup3\n        /* \"#utility.yul\":6741:6753   */\n      add\n        /* \"#utility.yul\":6734:6753   */\n      swap1\n      pop\n        /* \"#utility.yul\":6393:6759   */\n      swap2\n      swap1\n      pop\n      jump\t// out\n        /* \"#utility.yul\":6765:7184   */\n    tag_36:\n        /* \"#utility.yul\":6931:6935   */\n      0x00\n        /* \"#utility.yul\":6969:6971   */\n      0x20\n        /* \"#utility.yul\":6958:6967   */\n      dup3\n        /* \"#utility.yul\":6954:6972   */\n      add\n        /* \"#utility.yul\":6946:6972   */\n      swap1\n      pop\n        /* \"#utility.yul\":7018:7027   */\n      dup2\n        /* \"#utility.yul\":7012:7016   */\n      dup2\n        /* \"#utility.yul\":7008:7028   */\n      sub\n        /* \"#utility.yul\":7004:7005   */\n      0x00\n        /* \"#utility.yul\":6993:7002   */\n      dup4\n        /* \"#utility.yul\":6989:7006   */\n      add\n        /* \"#utility.yul\":6982:7029   */\n      mstore\n        /* \"#utility.yul\":7046:7177   */\n      tag_169\n        /* \"#utility.yul\":7172:7176   */\n      dup2\n        /* \"#utility.yul\":7046:7177   */\n      tag_77\n      jump\t// in\n    tag_169:\n        /* \"#utility.yul\":7038:7177   */\n      swap1\n      pop\n        /* \"#utility.yul\":6765:7184   */\n      swap2\n      swap1\n      pop\n      jump\t// out\n        /* \"#utility.yul\":7190:7370   */\n    tag_39:\n        /* \"#utility.yul\":7238:7315   */\n      0x4e487b7100000000000000000000000000000000000000000000000000000000\n        /* \"#utility.yul\":7235:7236   */\n      0x00\n        /* \"#utility.yul\":7228:7316   */\n      mstore\n        /* \"#utility.yul\":7335:7339   */\n      0x32\n        /* \"#utility.yul\":7332:7333   */\n      0x04\n        /* \"#utility.yul\":7325:7340   */\n      mstore\n        /* \"#utility.yul\":7359:7363   */\n      0x24\n        /* \"#utility.yul\":7356:7357   */\n      0x00\n        /* \"#utility.yul\":7349:7364   */\n      revert\n        /* \"#utility.yul\":7376:7517   */\n    tag_78:\n        /* \"#utility.yul\":7425:7429   */\n      0x00\n        /* \"#utility.yul\":7448:7451   */\n      dup2\n        /* \"#utility.yul\":7440:7451   */\n      swap1\n      pop\n        /* \"#utility.yul\":7471:7474   */\n      dup2\n        /* \"#utility.yul\":7468:7469   */\n      0x00\n        /* \"#utility.yul\":7461:7475   */\n      mstore\n        /* \"#utility.yul\":7505:7509   */\n      0x20\n        /* \"#utility.yul\":7502:7503   */\n      0x00\n        /* \"#utility.yul\":7492:7510   */\n      keccak256\n        /* \"#utility.yul\":7484:7510   */\n      swap1\n      pop\n        /* \"#utility.yul\":7376:7517   */\n      swap2\n      swap1\n      pop\n      jump\t// out\n        /* \"#utility.yul\":7523:7616   */\n    tag_79:\n        /* \"#utility.yul\":7560:7566   */\n      0x00\n        /* \"#utility.yul\":7607:7609   */\n      0x20\n        /* \"#utility.yul\":7602:7604   */\n      0x1f\n        /* \"#utility.yul\":7595:7600   */\n      dup4\n        /* \"#utility.yul\":7591:7605   */\n      add\n        /* \"#utility.yul\":7587:7610   */\n      div\n        /* \"#utility.yul\":7577:7610   */\n      swap1\n      pop\n        /* \"#utility.yul\":7523:7616   */\n      swap2\n      swap1\n      pop\n      jump\t// out\n        /* \"#utility.yul\":7622:7729   */\n    tag_80:\n        /* \"#utility.yul\":7666:7674   */\n      0x00\n        /* \"#utility.yul\":7716:7721   */\n      dup3\n        /* \"#utility.yul\":7710:7714   */\n      dup3\n        /* \"#utility.yul\":7706:7722   */\n      shl\n        /* \"#utility.yul\":7685:7722   */\n      swap1\n      pop\n        /* \"#utility.yul\":7622:7729   */\n      swap3\n      swap2\n      pop\n      pop\n      jump\t// out\n        /* \"#utility.yul\":7735:8128   */\n    tag_81:\n        /* \"#utility.yul\":7804:7810   */\n      0x00\n        /* \"#utility.yul\":7854:7855   */\n      0x08\n        /* \"#utility.yul\":7842:7852   */\n      dup4\n        /* \"#utility.yul\":7838:7856   */\n      mul\n        /* \"#utility.yul\":7877:7974   */\n      tag_175\n        /* \"#utility.yul\":7907:7973   */\n      0xffffffffffffffffffffffffffffffffffffffffffffffffffffffffffffffff\n        /* \"#utility.yul\":7896:7905   */\n      dup3\n        /* \"#utility.yul\":7877:7974   */\n      tag_80\n      jump\t// in\n    tag_175:\n        /* \"#utility.yul\":7995:8034   */\n      tag_176\n        /* \"#utility.yul\":8025:8033   */\n      dup7\n        /* \"#utility.yul\":8014:8023   */\n      dup4\n        /* \"#utility.yul\":7995:8034   */\n      tag_80\n      jump\t// in\n    tag_176:\n        /* \"#utility.yul\":7983:8034   */\n      swap6\n      pop\n        /* \"#utility.yul\":8067:8071   */\n      dup1\n        /* \"#utility.yul\":8063:8072   */\n      not\n        /* \"#utility.yul\":8056:8061   */\n      dup5\n        /* \"#utility.yul\":8052:8073   */\n      and\n        /* \"#utility.yul\":8043:8073   */\n      swap4\n      pop\n        /* \"#utility.yul\":8116:8120   */\n      dup1\n        /* \"#utility.yul\":8106:8114   */\n      dup7\n        /* \"#utility.yul\":8102:8121   */\n      and\n        /* \"#utility.yul\":8095:8100   */\n      dup5\n        /* \"#utility.yul\":8092:8122   */\n      or\n        /* \"#utility.yul\":8082:8122   */\n      swap3\n      pop\n        /* \"#utility.yul\":7811:8128   */\n      pop\n      pop\n        /* \"#utility.yul\":7735:8128   */\n      swap4\n      swap3\n      pop\n      pop\n      pop\n      jump\t// out\n        /* \"#utility.yul\":8134:8194   */\n    tag_82:\n        /* \"#utility.yul\":8162:8165   */\n      0x00\n        /* \"#utility.yul\":8183:8188   */\n      dup2\n        /* \"#utility.yul\":8176:8188   */\n      swap1\n      pop\n        /* \"#utility.yul\":8134:8194   */\n      swap2\n      swap1\n      pop\n      jump\t// out\n        /* \"#utility.yul\":8200:8342   */\n    tag_83:\n        /* \"#utility.yul\":8250:8259   */\n      0x00\n        /* \"#utility.yul\":8283:8336   */\n      tag_179\n        /* \"#utility.yul\":8301:8335   */\n      tag_180\n        /* \"#utility.yul\":8310:8334   */\n      tag_181\n        /* \"#utility.yul\":8328:8333   */\n      dup5\n        /* \"#utility.yul\":8310:8334   */\n      tag_54\n      jump\t// in\n    tag_181:\n        /* \"#utility.yul\":8301:8335   */\n      tag_82\n      jump\t// in\n    tag_180:\n        /* \"#utility.yul\":8283:8336   */\n      tag_54\n      jump\t// in\n    tag_179:\n        /* \"#utility.yul\":8270:8336   */\n      swap1\n      pop\n        /* \"#utility.yul\":8200:8342   */\n      swap2\n      swap1\n      pop\n      jump\t// out\n        /* \"#utility.yul\":8348:8423   */\n    tag_84:\n        /* \"#utility.yul\":8391:8394   */\n      0x00\n        /* \"#utility.yul\":8412:8417   */\n      dup2\n        /* \"#utility.yul\":8405:8417   */\n      swap1\n      pop\n        /* \"#utility.yul\":8348:8423   */\n      swap2\n      swap1\n      pop\n      jump\t// out\n        /* \"#utility.yul\":8429:8698   */\n    tag_85:\n        /* \"#utility.yul\":8539:8578   */\n      tag_184\n        /* \"#utility.yul\":8570:8577   */\n      dup4\n        /* \"#utility.yul\":8539:8578   */\n      tag_83\n      jump\t// in\n    tag_184:\n        /* \"#utility.yul\":8600:8691   */\n      tag_185\n        /* \"#utility.yul\":8649:8690   */\n      tag_186\n        /* \"#utility.yul\":8673:8689   */\n      dup3\n        /* \"#utility.yul\":8649:8690   */\n      tag_84\n      jump\t// in\n    tag_186:\n        /* \"#utility.yul\":8641:8647   */\n      dup5\n        /* \"#utility.yul\":8634:8638   */\n      dup5\n        /* \"#utility.yul\":8628:8639   */\n      sload\n        /* \"#utility.yul\":8600:8691   */\n      tag_81\n      jump\t// in\n    tag_185:\n        /* \"#utility.yul\":8594:8598   */\n      dup3\n        /* \"#utility.yul\":8587:8692   */\n      sstore\n        /* \"#utility.yul\":8505:8698   */\n      pop\n        /* \"#utility.yul\":8429:8698   */\n      pop\n      pop\n      pop\n      jump\t// out\n        /* \"#utility.yul\":8704:8777   */\n    tag_86:\n        /* \"#utility.yul\":8749:8752   */\n      0x00\n        /* \"#utility.yul\":8704:8777   */\n      swap1\n      jump\t// out\n        /* \"#utility.yul\":8783:8972   */\n    tag_87:\n        /* \"#utility.yul\":8860:8892   */\n      tag_189\n      tag_86\n      jump\t// in\n    tag_189:\n        /* \"#utility.yul\":8901:8966   */\n      tag_190\n        /* \"#utility.yul\":8959:8965   */\n      dup2\n        /* \"#utility.yul\":8951:8957   */\n      dup5\n        /* \"#utility.yul\":8945:8949   */\n      dup5\n        /* \"#utility.yul\":8901:8966   */\n      tag_85\n      jump\t// in\n    tag_190:\n        /* \"#utility.yul\":8836:8972   */\n      pop\n        /* \"#utility.yul\":8783:8972   */\n      pop\n      pop\n      jump\t// out\n        /* \"#utility.yul\":8978:9164   */\n    tag_88:\n        /* \"#utility.yul\":9038:9158   */\n    tag_192:\n        /* \"#utility.yul\":9055:9058   */\n      dup2\n        /* \"#utility.yul\":9048:9053   */\n      dup2\n        /* \"#utility.yul\":9045:9059   */\n      lt\n        /* \"#utility.yul\":9038:9158   */\n      iszero\n      tag_194\n      jumpi\n        /* \"#utility.yul\":9109:9148   */\n      tag_195\n        /* \"#utility.yul\":9146:9147   */\n      0x00\n        /* \"#utility.yul\":9139:9144   */\n      dup3\n        /* \"#utility.yul\":9109:9148   */\n      tag_87\n      jump\t// in\n    tag_195:\n        /* \"#utility.yul\":9082:9083   */\n      0x01\n        /* \"#utility.yul\":9075:9080   */\n      dup2\n        /* \"#utility.yul\":9071:9084   */\n      add\n        /* \"#utility.yul\":9062:9084   */\n      swap1\n      pop\n        /* \"#utility.yul\":9038:9158   */\n      jump(tag_192)\n    tag_194:\n        /* \"#utility.yul\":8978:9164   */\n      pop\n      pop\n      jump\t// out\n        /* \"#utility.yul\":9170:9713   */\n    tag_89:\n        /* \"#utility.yul\":9271:9273   */\n      0x1f\n        /* \"#utility.yul\":9266:9269   */\n      dup3\n        /* \"#utility.yul\":9263:9274   */\n      gt\n        /* \"#utility.yul\":9260:9706   */\n      iszero\n      tag_197\n      jumpi\n        /* \"#utility.yul\":9305:9343   */\n      tag_198\n        /* \"#utility.yul\":9337:9342   */\n      dup2\n        /* \"#utility.yul\":9305:9343   */\n      tag_78\n      jump\t// in\n    tag_198:\n        /* \"#utility.yul\":9389:9418   */\n      tag_199\n        /* \"#utility.yul\":9407:9417   */\n      dup5\n        /* \"#utility.yul\":9389:9418   */\n      tag_79\n      jump\t// in\n    tag_199:\n        /* \"#utility.yul\":9379:9387   */\n      dup2\n        /* \"#utility.yul\":9375:9419   */\n      add\n        /* \"#utility.yul\":9572:9574   */\n      0x20\n        /* \"#utility.yul\":9560:9570   */\n      dup6\n        /* \"#utility.yul\":9557:9575   */\n      lt\n        /* \"#utility.yul\":9554:9603   */\n      iszero\n      tag_200\n      jumpi\n        /* \"#utility.yul\":9593:9601   */\n      dup2\n        /* \"#utility.yul\":9578:9601   */\n      swap1\n      pop\n        /* \"#utility.yul\":9554:9603   */\n    tag_200:\n        /* \"#utility.yul\":9616:9696   */\n      tag_201\n        /* \"#utility.yul\":9672:9694   */\n      tag_202\n        /* \"#utility.yul\":9690:9693   */\n      dup6\n        /* \"#utility.yul\":9672:9694   */\n      tag_79\n      jump\t// in\n    tag_202:\n        /* \"#utility.yul\":9662:9670   */\n      dup4\n        /* \"#utility.yul\":9658:9695   */\n      add\n        /* \"#utility.yul\":9645:9656   */\n      dup3\n        /* \"#utility.yul\":9616:9696   */\n      tag_88\n      jump\t// in\n    tag_201:\n        /* \"#utility.yul\":9275:9706   */\n      pop\n      pop\n        /* \"#utility.yul\":9260:9706   */\n    tag_197:\n        /* \"#utility.yul\":9170:9713   */\n      pop\n      pop\n      pop\n      jump\t// out\n        /* \"#utility.yul\":9719:9836   */\n    tag_90:\n        /* \"#utility.yul\":9773:9781   */\n      0x00\n        /* \"#utility.yul\":9823:9828   */\n      dup3\n        /* \"#utility.yul\":9817:9821   */\n      dup3\n        /* \"#utility.yul\":9813:9829   */\n      shr\n        /* \"#utility.yul\":9792:9829   */\n      swap1\n      pop\n        /* \"#utility.yul\":9719:9836   */\n      swap3\n      swap2\n      pop\n      pop\n      jump\t// out\n        /* \"#utility.yul\":9842:10011   */\n    tag_91:\n        /* \"#utility.yul\":9886:9892   */\n      0x00\n        /* \"#utility.yul\":9919:9970   */\n      tag_205\n        /* \"#utility.yul\":9967:9968   */\n      0x00\n        /* \"#utility.yul\":9963:9969   */\n      not\n        /* \"#utility.yul\":9955:9960   */\n      dup5\n        /* \"#utility.yul\":9952:9953   */\n      0x08\n        /* \"#utility.yul\":9948:9961   */\n      mul\n        /* \"#utility.yul\":9919:9970   */\n      tag_90\n      jump\t// in\n    tag_205:\n        /* \"#utility.yul\":9915:9971   */\n      not\n        /* \"#utility.yul\":10000:10004   */\n      dup1\n        /* \"#utility.yul\":9994:9998   */\n      dup4\n        /* \"#utility.yul\":9990:10005   */\n      and\n        /* \"#utility.yul\":9980:10005   */\n      swap2\n      pop\n        /* \"#utility.yul\":9893:10011   */\n      pop\n        /* \"#utility.yul\":9842:10011   */\n      swap3\n      swap2\n      pop\n      pop\n      jump\t// out\n        /* \"#utility.yul\":10016:10311   */\n    tag_92:\n        /* \"#utility.yul\":10092:10096   */\n      0x00\n        /* \"#utility.yul\":10238:10267   */\n      tag_207\n        /* \"#utility.yul\":10263:10266   */\n      dup4\n        /* \"#utility.yul\":10257:10261   */\n      dup4\n        /* \"#utility.yul\":10238:10267   */\n      tag_91\n      jump\t// in\n    tag_207:\n        /* \"#utility.yul\":10230:10267   */\n      swap2\n      pop\n        /* \"#utility.yul\":10300:10303   */\n      dup3\n        /* \"#utility.yul\":10297:10298   */\n      0x02\n        /* \"#utility.yul\":10293:10304   */\n      mul\n        /* \"#utility.yul\":10287:10291   */\n      dup3\n        /* \"#utility.yul\":10284:10305   */\n      or\n        /* \"#utility.yul\":10276:10305   */\n      swap1\n      pop\n        /* \"#utility.yul\":10016:10311   */\n      swap3\n      swap2\n      pop\n      pop\n      jump\t// out\n        /* \"#utility.yul\":10316:11711   */\n    tag_50:\n        /* \"#utility.yul\":10433:10470   */\n      tag_209\n        /* \"#utility.yul\":10466:10469   */\n      dup3\n        /* \"#utility.yul\":10433:10470   */\n      tag_57\n      jump\t// in\n    tag_209:\n        /* \"#utility.yul\":10535:10553   */\n      0xffffffffffffffff\n        /* \"#utility.yul\":10527:10533   */\n      dup2\n        /* \"#utility.yul\":10524:10554   */\n      gt\n        /* \"#utility.yul\":10521:10577   */\n      iszero\n      tag_210\n      jumpi\n        /* \"#utility.yul\":10557:10575   */\n      tag_211\n      tag_68\n      jump\t// in\n    tag_211:\n        /* \"#utility.yul\":10521:10577   */\n    tag_210:\n        /* \"#utility.yul\":10601:10639   */\n      tag_212\n        /* \"#utility.yul\":10633:10637   */\n      dup3\n        /* \"#utility.yul\":10627:10638   */\n      sload\n        /* \"#utility.yul\":10601:10639   */\n      tag_28\n      jump\t// in\n    tag_212:\n        /* \"#utility.yul\":10686:10753   */\n      tag_213\n        /* \"#utility.yul\":10746:10752   */\n      dup3\n        /* \"#utility.yul\":10738:10744   */\n      dup3\n        /* \"#utility.yul\":10732:10736   */\n      dup6\n        /* \"#utility.yul\":10686:10753   */\n      tag_89\n      jump\t// in\n    tag_213:\n        /* \"#utility.yul\":10780:10781   */\n      0x00\n        /* \"#utility.yul\":10804:10808   */\n      0x20\n        /* \"#utility.yul\":10791:10808   */\n      swap1\n      pop\n        /* \"#utility.yul\":10836:10838   */\n      0x1f\n        /* \"#utility.yul\":10828:10834   */\n      dup4\n        /* \"#utility.yul\":10825:10839   */\n      gt\n        /* \"#utility.yul\":10853:10854   */\n      0x01\n        /* \"#utility.yul\":10848:11466   */\n      dup2\n      eq\n      tag_215\n      jumpi\n        /* \"#utility.yul\":11510:11511   */\n      0x00\n        /* \"#utility.yul\":11527:11533   */\n      dup5\n        /* \"#utility.yul\":11524:11601   */\n      iszero\n      tag_216\n      jumpi\n        /* \"#utility.yul\":11576:11585   */\n      dup3\n        /* \"#utility.yul\":11571:11574   */\n      dup8\n        /* \"#utility.yul\":11567:11586   */\n      add\n        /* \"#utility.yul\":11561:11587   */\n      mload\n        /* \"#utility.yul\":11552:11587   */\n      swap1\n      pop\n        /* \"#utility.yul\":11524:11601   */\n    tag_216:\n        /* \"#utility.yul\":11627:11694   */\n      tag_217\n        /* \"#utility.yul\":11687:11693   */\n      dup6\n        /* \"#utility.yul\":11680:11685   */\n      dup3\n        /* \"#utility.yul\":11627:11694   */\n      tag_92\n      jump\t// in\n    tag_217:\n        /* \"#utility.yul\":11621:11625   */\n      dup7\n        /* \"#utility.yul\":11614:11695   */\n      sstore\n        /* \"#utility.yul\":11483:11705   */\n      pop\n        /* \"#utility.yul\":10818:11705   */\n      jump(tag_214)\n        /* \"#utility.yul\":10848:11466   */\n    tag_215:\n        /* \"#utility.yul\":10900:10904   */\n      0x1f\n        /* \"#utility.yul\":10896:10905   */\n      not\n        /* \"#utility.yul\":10888:10894   */\n      dup5\n        /* \"#utility.yul\":10884:10906   */\n      and\n        /* \"#utility.yul\":10934:10971   */\n      tag_218\n        /* \"#utility.yul\":10966:10970   */\n      dup7\n        /* \"#utility.yul\":10934:10971   */\n      tag_78\n      jump\t// in\n    tag_218:\n        /* \"#utility.yul\":10993:10994   */\n      0x00\n        /* \"#utility.yul\":11007:11215   */\n    tag_219:\n        /* \"#utility.yul\":11021:11028   */\n      dup3\n        /* \"#utility.yul\":11018:11019   */\n      dup2\n        /* \"#utility.yul\":11015:11029   */\n      lt\n        /* \"#utility.yul\":11007:11215   */\n      iszero\n      tag_221\n      jumpi\n        /* \"#utility.yul\":11100:11109   */\n      dup5\n        /* \"#utility.yul\":11095:11098   */\n      dup10\n        /* \"#utility.yul\":11091:11110   */\n      add\n        /* \"#utility.yul\":11085:11111   */\n      mload\n        /* \"#utility.yul\":11077:11083   */\n      dup3\n        /* \"#utility.yul\":11070:11112   */\n      sstore\n        /* \"#utility.yul\":11151:11152   */\n      0x01\n        /* \"#utility.yul\":11143:11149   */\n      dup3\n        /* \"#utility.yul\":11139:11153   */\n      add\n        /* \"#utility.yul\":11129:11153   */\n      swap2\n      pop\n        /* \"#utility.yul\":11198:11200   */\n      0x20\n        /* \"#utility.yul\":11187:11196   */\n      dup6\n        /* \"#utility.yul\":11183:11201   */\n      add\n        /* \"#utility.yul\":11170:11201   */\n      swap5\n      pop\n        /* \"#utility.yul\":11044:11048   */\n      0x20\n        /* \"#utility.yul\":11041:11042   */\n      dup2\n        /* \"#utility.yul\":11037:11049   */\n      add\n        /* \"#utility.yul\":11032:11049   */\n      swap1\n      pop\n        /* \"#utility.yul\":11007:11215   */\n      jump(tag_219)\n    tag_221:\n        /* \"#utility.yul\":11243:11249   */\n      dup7\n        /* \"#utility.yul\":11234:11241   */\n      dup4\n        /* \"#utility.yul\":11231:11250   */\n      lt\n        /* \"#utility.yul\":11228:11407   */\n      iszero\n      tag_222\n      jumpi\n        /* \"#utility.yul\":11301:11310   */\n      dup5\n        /* \"#utility.yul\":11296:11299   */\n      dup10\n        /* \"#utility.yul\":11292:11311   */\n      add\n        /* \"#utility.yul\":11286:11312   */\n      mload\n        /* \"#utility.yul\":11344:11392   */\n      tag_223\n        /* \"#utility.yul\":11386:11390   */\n      0x1f\n        /* \"#utility.yul\":11378:11384   */\n      dup10\n        /* \"#utility.yul\":11374:11391   */\n      and\n        /* \"#utility.yul\":11363:11372   */\n      dup3\n        /* \"#utility.yul\":11344:11392   */\n      tag_91\n      jump\t// in\n    tag_223:\n        /* \"#utility.yul\":11336:11342   */\n      dup4\n        /* \"#utility.yul\":11329:11393   */\n      sstore\n        /* \"#utility.yul\":11251:11407   */\n      pop\n        /* \"#utility.yul\":11228:11407   */\n    tag_222:\n        /* \"#utility.yul\":11453:11454   */\n      0x01\n        /* \"#utility.yul\":11449:11450   */\n      0x02\n        /* \"#utility.yul\":11441:11447   */\n      dup9\n        /* \"#utility.yul\":11437:11451   */\n      mul\n        /* \"#utility.yul\":11433:11455   */\n      add\n        /* \"#utility.yul\":11427:11431   */\n      dup9\n        /* \"#utility.yul\":11420:11456   */\n      sstore\n        /* \"#utility.yul\":10855:11466   */\n      pop\n      pop\n      pop\n        /* \"#utility.yul\":10818:11705   */\n    tag_214:\n      pop\n        /* \"#utility.yul\":10408:11711   */\n      pop\n      pop\n      pop\n        /* \"#utility.yul\":10316:11711   */\n      pop\n      pop\n      jump\t// out\n\n    auxdata: 0xa2646970667358221220cf2f71e3205dfb47216ccd9e64319d14fe44a34a3c0ea030862a80be244c6c3f64736f6c634300081a0033\n}\n",
				"bytecode": {
					"linkReferences": {},
					"object": "6080604052348015600e575f80fd5b50610a1a8061001c5f395ff3fe608060405234801561000f575f80fd5b506004361061004a575f3560e01c80630b1e7f831461004e57806340731c241461007f5780635fe226b4146100b0578063c5719463146100ce575b5f80fd5b610068600480360381019061006391906103e3565b6100ea565b6040516100769291906104bd565b60405180910390f35b610099600480360381019061009491906103e3565b6101bd565b6040516100a79291906104bd565b60405180910390f35b6100b86102e3565b6040516100c591906104fa565b60405180910390f35b6100e860048036038101906100e3919061063f565b6102ee565b005b5f81815481106100f8575f80fd5b905f5260205f2090600202015f91509050805f018054610117906106b3565b80601f0160208091040260200160405190810160405280929190818152602001828054610143906106b3565b801561018e5780601f106101655761010080835404028352916020019161018e565b820191905f5260205f20905b81548152906001019060200180831161017157829003601f168201915b505050505090806001015f9054906101000a900473ffffffffffffffffffffffffffffffffffffffff16905082565b60605f80805490508310610206576040517f08c379a00000000000000000000000000000000000000000000000000000000081526004016101fd9061072d565b60405180910390fd5b5f80848154811061021a5761021961074b565b5b905f5260205f2090600202019050805f01816001015f9054906101000a900473ffffffffffffffffffffffffffffffffffffffff1681805461025b906106b3565b80601f0160208091040260200160405190810160405280929190818152602001828054610287906106b3565b80156102d25780601f106102a9576101008083540402835291602001916102d2565b820191905f5260205f20905b8154815290600101906020018083116102b557829003601f168201915b505050505091509250925050915091565b5f8080549050905090565b5f60405180604001604052808381526020013373ffffffffffffffffffffffffffffffffffffffff16815250908060018154018082558091505060019003905f5260205f2090600202015f909190919091505f820151815f0190816103539190610915565b506020820151816001015f6101000a81548173ffffffffffffffffffffffffffffffffffffffff021916908373ffffffffffffffffffffffffffffffffffffffff160217905550505050565b5f604051905090565b5f80fd5b5f80fd5b5f819050919050565b6103c2816103b0565b81146103cc575f80fd5b50565b5f813590506103dd816103b9565b92915050565b5f602082840312156103f8576103f76103a8565b5b5f610405848285016103cf565b91505092915050565b5f81519050919050565b5f82825260208201905092915050565b8281835e5f83830152505050565b5f601f19601f8301169050919050565b5f6104508261040e565b61045a8185610418565b935061046a818560208601610428565b61047381610436565b840191505092915050565b5f73ffffffffffffffffffffffffffffffffffffffff82169050919050565b5f6104a78261047e565b9050919050565b6104b78161049d565b82525050565b5f6040820190508181035f8301526104d58185610446565b90506104e460208301846104ae565b9392505050565b6104f4816103b0565b82525050565b5f60208201905061050d5f8301846104eb565b92915050565b5f80fd5b5f80fd5b7f4e487b71000000000000000000000000000000000000000000000000000000005f52604160045260245ffd5b61055182610436565b810181811067ffffffffffffffff821117156105705761056f61051b565b5b80604052505050565b5f61058261039f565b905061058e8282610548565b919050565b5f67ffffffffffffffff8211156105ad576105ac61051b565b5b6105b682610436565b9050602081019050919050565b828183375f83830152505050565b5f6105e36105de84610593565b610579565b9050828152602081018484840111156105ff576105fe610517565b5b61060a8482856105c3565b509392505050565b5f82601f83011261062657610625610513565b5b81356106368482602086016105d1565b91505092915050565b5f60208284031215610654576106536103a8565b5b5f82013567ffffffffffffffff811115610671576106706103ac565b5b61067d84828501610612565b91505092915050565b7f4e487b71000000000000000000000000000000000000000000000000000000005f52602260045260245ffd5b5f60028204905060018216806106ca57607f821691505b6020821081036106dd576106dc610686565b5b50919050565b7f496e64657820686f7273206c696d6974650000000000000000000000000000005f82015250565b5f610717601183610418565b9150610722826106e3565b602082019050919050565b5f6020820190508181035f8301526107448161070b565b9050919050565b7f4e487b71000000000000000000000000000000000000000000000000000000005f52603260045260245ffd5b5f819050815f5260205f209050919050565b5f6020601f8301049050919050565b5f82821b905092915050565b5f600883026107d47fffffffffffffffffffffffffffffffffffffffffffffffffffffffffffffffff82610799565b6107de8683610799565b95508019841693508086168417925050509392505050565b5f819050919050565b5f61081961081461080f846103b0565b6107f6565b6103b0565b9050919050565b5f819050919050565b610832836107ff565b61084661083e82610820565b8484546107a5565b825550505050565b5f90565b61085a61084e565b610865818484610829565b505050565b5b818110156108885761087d5f82610852565b60018101905061086b565b5050565b601f8211156108cd5761089e81610778565b6108a78461078a565b810160208510156108b6578190505b6108ca6108c28561078a565b83018261086a565b50505b505050565b5f82821c905092915050565b5f6108ed5f19846008026108d2565b1980831691505092915050565b5f61090583836108de565b9150826002028217905092915050565b61091e8261040e565b67ffffffffffffffff8111156109375761093661051b565b5b61094182546106b3565b61094c82828561088c565b5f60209050601f83116001811461097d575f841561096b578287015190505b61097585826108fa565b8655506109dc565b601f19841661098b86610778565b5f5b828110156109b25784890151825560018201915060208501945060208101905061098d565b868310156109cf57848901516109cb601f8916826108de565b8355505b6001600288020188555050505b50505050505056fea2646970667358221220cf2f71e3205dfb47216ccd9e64319d14fe44a34a3c0ea030862a80be244c6c3f64736f6c634300081a0033",
					"opcodes": "PUSH1 0x80 PUSH1 0x40 MSTORE CALLVALUE DUP1 ISZERO PUSH1 0xE JUMPI PUSH0 DUP1 REVERT JUMPDEST POP PUSH2 0xA1A DUP1 PUSH2 0x1C PUSH0 CODECOPY PUSH0 RETURN INVALID PUSH1 0x80 PUSH1 0x40 MSTORE CALLVALUE DUP1 ISZERO PUSH2 0xF JUMPI PUSH0 DUP1 REVERT JUMPDEST POP PUSH1 0x4 CALLDATASIZE LT PUSH2 0x4A JUMPI PUSH0 CALLDATALOAD PUSH1 0xE0 SHR DUP1 PUSH4 0xB1E7F83 EQ PUSH2 0x4E JUMPI DUP1 PUSH4 0x40731C24 EQ PUSH2 0x7F JUMPI DUP1 PUSH4 0x5FE226B4 EQ PUSH2 0xB0 JUMPI DUP1 PUSH4 0xC5719463 EQ PUSH2 0xCE JUMPI JUMPDEST PUSH0 DUP1 REVERT JUMPDEST PUSH2 0x68 PUSH1 0x4 DUP1 CALLDATASIZE SUB DUP2 ADD SWAP1 PUSH2 0x63 SWAP2 SWAP1 PUSH2 0x3E3 JUMP JUMPDEST PUSH2 0xEA JUMP JUMPDEST PUSH1 0x40 MLOAD PUSH2 0x76 SWAP3 SWAP2 SWAP1 PUSH2 0x4BD JUMP JUMPDEST PUSH1 0x40 MLOAD DUP1 SWAP2 SUB SWAP1 RETURN JUMPDEST PUSH2 0x99 PUSH1 0x4 DUP1 CALLDATASIZE SUB DUP2 ADD SWAP1 PUSH2 0x94 SWAP2 SWAP1 PUSH2 0x3E3 JUMP JUMPDEST PUSH2 0x1BD JUMP JUMPDEST PUSH1 0x40 MLOAD PUSH2 0xA7 SWAP3 SWAP2 SWAP1 PUSH2 0x4BD JUMP JUMPDEST PUSH1 0x40 MLOAD DUP1 SWAP2 SUB SWAP1 RETURN JUMPDEST PUSH2 0xB8 PUSH2 0x2E3 JUMP JUMPDEST PUSH1 0x40 MLOAD PUSH2 0xC5 SWAP2 SWAP1 PUSH2 0x4FA JUMP JUMPDEST PUSH1 0x40 MLOAD DUP1 SWAP2 SUB SWAP1 RETURN JUMPDEST PUSH2 0xE8 PUSH1 0x4 DUP1 CALLDATASIZE SUB DUP2 ADD SWAP1 PUSH2 0xE3 SWAP2 SWAP1 PUSH2 0x63F JUMP JUMPDEST PUSH2 0x2EE JUMP JUMPDEST STOP JUMPDEST PUSH0 DUP2 DUP2 SLOAD DUP2 LT PUSH2 0xF8 JUMPI PUSH0 DUP1 REVERT JUMPDEST SWAP1 PUSH0 MSTORE PUSH1 0x20 PUSH0 KECCAK256 SWAP1 PUSH1 0x2 MUL ADD PUSH0 SWAP2 POP SWAP1 POP DUP1 PUSH0 ADD DUP1 SLOAD PUSH2 0x117 SWAP1 PUSH2 0x6B3 JUMP JUMPDEST DUP1 PUSH1 0x1F ADD PUSH1 0x20 DUP1 SWAP2 DIV MUL PUSH1 0x20 ADD PUSH1 0x40 MLOAD SWAP1 DUP2 ADD PUSH1 0x40 MSTORE DUP1 SWAP3 SWAP2 SWAP1 DUP2 DUP2 MSTORE PUSH1 0x20 ADD DUP3 DUP1 SLOAD PUSH2 0x143 SWAP1 PUSH2 0x6B3 JUMP JUMPDEST DUP1 ISZERO PUSH2 0x18E JUMPI DUP1 PUSH1 0x1F LT PUSH2 0x165 JUMPI PUSH2 0x100 DUP1 DUP4 SLOAD DIV MUL DUP4 MSTORE SWAP2 PUSH1 0x20 ADD SWAP2 PUSH2 0x18E JUMP JUMPDEST DUP3 ADD SWAP2 SWAP1 PUSH0 MSTORE PUSH1 0x20 PUSH0 KECCAK256 SWAP1 JUMPDEST DUP2 SLOAD DUP2 MSTORE SWAP1 PUSH1 0x1 ADD SWAP1 PUSH1 0x20 ADD DUP1 DUP4 GT PUSH2 0x171 JUMPI DUP3 SWAP1 SUB PUSH1 0x1F AND DUP3 ADD SWAP2 JUMPDEST POP POP POP POP POP SWAP1 DUP1 PUSH1 0x1 ADD PUSH0 SWAP1 SLOAD SWAP1 PUSH2 0x100 EXP SWAP1 DIV PUSH20 0xFFFFFFFFFFFFFFFFFFFFFFFFFFFFFFFFFFFFFFFF AND SWAP1 POP DUP3 JUMP JUMPDEST PUSH1 0x60 PUSH0 DUP1 DUP1 SLOAD SWAP1 POP DUP4 LT PUSH2 0x206 JUMPI PUSH1 0x40 MLOAD PUSH32 0x8C379A000000000000000000000000000000000000000000000000000000000 DUP2 MSTORE PUSH1 0x4 ADD PUSH2 0x1FD SWAP1 PUSH2 0x72D JUMP JUMPDEST PUSH1 0x40 MLOAD DUP1 SWAP2 SUB SWAP1 REVERT JUMPDEST PUSH0 DUP1 DUP5 DUP2 SLOAD DUP2 LT PUSH2 0x21A JUMPI PUSH2 0x219 PUSH2 0x74B JUMP JUMPDEST JUMPDEST SWAP1 PUSH0 MSTORE PUSH1 0x20 PUSH0 KECCAK256 SWAP1 PUSH1 0x2 MUL ADD SWAP1 POP DUP1 PUSH0 ADD DUP2 PUSH1 0x1 ADD PUSH0 SWAP1 SLOAD SWAP1 PUSH2 0x100 EXP SWAP1 DIV PUSH20 0xFFFFFFFFFFFFFFFFFFFFFFFFFFFFFFFFFFFFFFFF AND DUP2 DUP1 SLOAD PUSH2 0x25B SWAP1 PUSH2 0x6B3 JUMP JUMPDEST DUP1 PUSH1 0x1F ADD PUSH1 0x20 DUP1 SWAP2 DIV MUL PUSH1 0x20 ADD PUSH1 0x40 MLOAD SWAP1 DUP2 ADD PUSH1 0x40 MSTORE DUP1 SWAP3 SWAP2 SWAP1 DUP2 DUP2 MSTORE PUSH1 0x20 ADD DUP3 DUP1 SLOAD PUSH2 0x287 SWAP1 PUSH2 0x6B3 JUMP JUMPDEST DUP1 ISZERO PUSH2 0x2D2 JUMPI DUP1 PUSH1 0x1F LT PUSH2 0x2A9 JUMPI PUSH2 0x100 DUP1 DUP4 SLOAD DIV MUL DUP4 MSTORE SWAP2 PUSH1 0x20 ADD SWAP2 PUSH2 0x2D2 JUMP JUMPDEST DUP3 ADD SWAP2 SWAP1 PUSH0 MSTORE PUSH1 0x20 PUSH0 KECCAK256 SWAP1 JUMPDEST DUP2 SLOAD DUP2 MSTORE SWAP1 PUSH1 0x1 ADD SWAP1 PUSH1 0x20 ADD DUP1 DUP4 GT PUSH2 0x2B5 JUMPI DUP3 SWAP1 SUB PUSH1 0x1F AND DUP3 ADD SWAP2 JUMPDEST POP POP POP POP POP SWAP2 POP SWAP3 POP SWAP3 POP POP SWAP2 POP SWAP2 JUMP JUMPDEST PUSH0 DUP1 DUP1 SLOAD SWAP1 POP SWAP1 POP SWAP1 JUMP JUMPDEST PUSH0 PUSH1 0x40 MLOAD DUP1 PUSH1 0x40 ADD PUSH1 0x40 MSTORE DUP1 DUP4 DUP2 MSTORE PUSH1 0x20 ADD CALLER PUSH20 0xFFFFFFFFFFFFFFFFFFFFFFFFFFFFFFFFFFFFFFFF AND DUP2 MSTORE POP SWAP1 DUP1 PUSH1 0x1 DUP2 SLOAD ADD DUP1 DUP3 SSTORE DUP1 SWAP2 POP POP PUSH1 0x1 SWAP1 SUB SWAP1 PUSH0 MSTORE PUSH1 0x20 PUSH0 KECCAK256 SWAP1 PUSH1 0x2 MUL ADD PUSH0 SWAP1 SWAP2 SWAP1 SWAP2 SWAP1 SWAP2 POP PUSH0 DUP3 ADD MLOAD DUP2 PUSH0 ADD SWAP1 DUP2 PUSH2 0x353 SWAP2 SWAP1 PUSH2 0x915 JUMP JUMPDEST POP PUSH1 0x20 DUP3 ADD MLOAD DUP2 PUSH1 0x1 ADD PUSH0 PUSH2 0x100 EXP DUP2 SLOAD DUP2 PUSH20 0xFFFFFFFFFFFFFFFFFFFFFFFFFFFFFFFFFFFFFFFF MUL NOT AND SWAP1 DUP4 PUSH20 0xFFFFFFFFFFFFFFFFFFFFFFFFFFFFFFFFFFFFFFFF AND MUL OR SWAP1 SSTORE POP POP POP POP JUMP JUMPDEST PUSH0 PUSH1 0x40 MLOAD SWAP1 POP SWAP1 JUMP JUMPDEST PUSH0 DUP1 REVERT JUMPDEST PUSH0 DUP1 REVERT JUMPDEST PUSH0 DUP2 SWAP1 POP SWAP2 SWAP1 POP JUMP JUMPDEST PUSH2 0x3C2 DUP2 PUSH2 0x3B0 JUMP JUMPDEST DUP2 EQ PUSH2 0x3CC JUMPI PUSH0 DUP1 REVERT JUMPDEST POP JUMP JUMPDEST PUSH0 DUP2 CALLDATALOAD SWAP1 POP PUSH2 0x3DD DUP2 PUSH2 0x3B9 JUMP JUMPDEST SWAP3 SWAP2 POP POP JUMP JUMPDEST PUSH0 PUSH1 0x20 DUP3 DUP5 SUB SLT ISZERO PUSH2 0x3F8 JUMPI PUSH2 0x3F7 PUSH2 0x3A8 JUMP JUMPDEST JUMPDEST PUSH0 PUSH2 0x405 DUP5 DUP3 DUP6 ADD PUSH2 0x3CF JUMP JUMPDEST SWAP2 POP POP SWAP3 SWAP2 POP POP JUMP JUMPDEST PUSH0 DUP2 MLOAD SWAP1 POP SWAP2 SWAP1 POP JUMP JUMPDEST PUSH0 DUP3 DUP3 MSTORE PUSH1 0x20 DUP3 ADD SWAP1 POP SWAP3 SWAP2 POP POP JUMP JUMPDEST DUP3 DUP2 DUP4 MCOPY PUSH0 DUP4 DUP4 ADD MSTORE POP POP POP JUMP JUMPDEST PUSH0 PUSH1 0x1F NOT PUSH1 0x1F DUP4 ADD AND SWAP1 POP SWAP2 SWAP1 POP JUMP JUMPDEST PUSH0 PUSH2 0x450 DUP3 PUSH2 0x40E JUMP JUMPDEST PUSH2 0x45A DUP2 DUP6 PUSH2 0x418 JUMP JUMPDEST SWAP4 POP PUSH2 0x46A DUP2 DUP6 PUSH1 0x20 DUP7 ADD PUSH2 0x428 JUMP JUMPDEST PUSH2 0x473 DUP2 PUSH2 0x436 JUMP JUMPDEST DUP5 ADD SWAP2 POP POP SWAP3 SWAP2 POP POP JUMP JUMPDEST PUSH0 PUSH20 0xFFFFFFFFFFFFFFFFFFFFFFFFFFFFFFFFFFFFFFFF DUP3 AND SWAP1 POP SWAP2 SWAP1 POP JUMP JUMPDEST PUSH0 PUSH2 0x4A7 DUP3 PUSH2 0x47E JUMP JUMPDEST SWAP1 POP SWAP2 SWAP1 POP JUMP JUMPDEST PUSH2 0x4B7 DUP2 PUSH2 0x49D JUMP JUMPDEST DUP3 MSTORE POP POP JUMP JUMPDEST PUSH0 PUSH1 0x40 DUP3 ADD SWAP1 POP DUP2 DUP2 SUB PUSH0 DUP4 ADD MSTORE PUSH2 0x4D5 DUP2 DUP6 PUSH2 0x446 JUMP JUMPDEST SWAP1 POP PUSH2 0x4E4 PUSH1 0x20 DUP4 ADD DUP5 PUSH2 0x4AE JUMP JUMPDEST SWAP4 SWAP3 POP POP POP JUMP JUMPDEST PUSH2 0x4F4 DUP2 PUSH2 0x3B0 JUMP JUMPDEST DUP3 MSTORE POP POP JUMP JUMPDEST PUSH0 PUSH1 0x20 DUP3 ADD SWAP1 POP PUSH2 0x50D PUSH0 DUP4 ADD DUP5 PUSH2 0x4EB JUMP JUMPDEST SWAP3 SWAP2 POP POP JUMP JUMPDEST PUSH0 DUP1 REVERT JUMPDEST PUSH0 DUP1 REVERT JUMPDEST PUSH32 0x4E487B7100000000000000000000000000000000000000000000000000000000 PUSH0 MSTORE PUSH1 0x41 PUSH1 0x4 MSTORE PUSH1 0x24 PUSH0 REVERT JUMPDEST PUSH2 0x551 DUP3 PUSH2 0x436 JUMP JUMPDEST DUP2 ADD DUP2 DUP2 LT PUSH8 0xFFFFFFFFFFFFFFFF DUP3 GT OR ISZERO PUSH2 0x570 JUMPI PUSH2 0x56F PUSH2 0x51B JUMP JUMPDEST JUMPDEST DUP1 PUSH1 0x40 MSTORE POP POP POP JUMP JUMPDEST PUSH0 PUSH2 0x582 PUSH2 0x39F JUMP JUMPDEST SWAP1 POP PUSH2 0x58E DUP3 DUP3 PUSH2 0x548 JUMP JUMPDEST SWAP2 SWAP1 POP JUMP JUMPDEST PUSH0 PUSH8 0xFFFFFFFFFFFFFFFF DUP3 GT ISZERO PUSH2 0x5AD JUMPI PUSH2 0x5AC PUSH2 0x51B JUMP JUMPDEST JUMPDEST PUSH2 0x5B6 DUP3 PUSH2 0x436 JUMP JUMPDEST SWAP1 POP PUSH1 0x20 DUP2 ADD SWAP1 POP SWAP2 SWAP1 POP JUMP JUMPDEST DUP3 DUP2 DUP4 CALLDATACOPY PUSH0 DUP4 DUP4 ADD MSTORE POP POP POP JUMP JUMPDEST PUSH0 PUSH2 0x5E3 PUSH2 0x5DE DUP5 PUSH2 0x593 JUMP JUMPDEST PUSH2 0x579 JUMP JUMPDEST SWAP1 POP DUP3 DUP2 MSTORE PUSH1 0x20 DUP2 ADD DUP5 DUP5 DUP5 ADD GT ISZERO PUSH2 0x5FF JUMPI PUSH2 0x5FE PUSH2 0x517 JUMP JUMPDEST JUMPDEST PUSH2 0x60A DUP5 DUP3 DUP6 PUSH2 0x5C3 JUMP JUMPDEST POP SWAP4 SWAP3 POP POP POP JUMP JUMPDEST PUSH0 DUP3 PUSH1 0x1F DUP4 ADD SLT PUSH2 0x626 JUMPI PUSH2 0x625 PUSH2 0x513 JUMP JUMPDEST JUMPDEST DUP2 CALLDATALOAD PUSH2 0x636 DUP5 DUP3 PUSH1 0x20 DUP7 ADD PUSH2 0x5D1 JUMP JUMPDEST SWAP2 POP POP SWAP3 SWAP2 POP POP JUMP JUMPDEST PUSH0 PUSH1 0x20 DUP3 DUP5 SUB SLT ISZERO PUSH2 0x654 JUMPI PUSH2 0x653 PUSH2 0x3A8 JUMP JUMPDEST JUMPDEST PUSH0 DUP3 ADD CALLDATALOAD PUSH8 0xFFFFFFFFFFFFFFFF DUP2 GT ISZERO PUSH2 0x671 JUMPI PUSH2 0x670 PUSH2 0x3AC JUMP JUMPDEST JUMPDEST PUSH2 0x67D DUP5 DUP3 DUP6 ADD PUSH2 0x612 JUMP JUMPDEST SWAP2 POP POP SWAP3 SWAP2 POP POP JUMP JUMPDEST PUSH32 0x4E487B7100000000000000000000000000000000000000000000000000000000 PUSH0 MSTORE PUSH1 0x22 PUSH1 0x4 MSTORE PUSH1 0x24 PUSH0 REVERT JUMPDEST PUSH0 PUSH1 0x2 DUP3 DIV SWAP1 POP PUSH1 0x1 DUP3 AND DUP1 PUSH2 0x6CA JUMPI PUSH1 0x7F DUP3 AND SWAP2 POP JUMPDEST PUSH1 0x20 DUP3 LT DUP2 SUB PUSH2 0x6DD JUMPI PUSH2 0x6DC PUSH2 0x686 JUMP JUMPDEST JUMPDEST POP SWAP2 SWAP1 POP JUMP JUMPDEST PUSH32 0x496E64657820686F7273206C696D697465000000000000000000000000000000 PUSH0 DUP3 ADD MSTORE POP JUMP JUMPDEST PUSH0 PUSH2 0x717 PUSH1 0x11 DUP4 PUSH2 0x418 JUMP JUMPDEST SWAP2 POP PUSH2 0x722 DUP3 PUSH2 0x6E3 JUMP JUMPDEST PUSH1 0x20 DUP3 ADD SWAP1 POP SWAP2 SWAP1 POP JUMP JUMPDEST PUSH0 PUSH1 0x20 DUP3 ADD SWAP1 POP DUP2 DUP2 SUB PUSH0 DUP4 ADD MSTORE PUSH2 0x744 DUP2 PUSH2 0x70B JUMP JUMPDEST SWAP1 POP SWAP2 SWAP1 POP JUMP JUMPDEST PUSH32 0x4E487B7100000000000000000000000000000000000000000000000000000000 PUSH0 MSTORE PUSH1 0x32 PUSH1 0x4 MSTORE PUSH1 0x24 PUSH0 REVERT JUMPDEST PUSH0 DUP2 SWAP1 POP DUP2 PUSH0 MSTORE PUSH1 0x20 PUSH0 KECCAK256 SWAP1 POP SWAP2 SWAP1 POP JUMP JUMPDEST PUSH0 PUSH1 0x20 PUSH1 0x1F DUP4 ADD DIV SWAP1 POP SWAP2 SWAP1 POP JUMP JUMPDEST PUSH0 DUP3 DUP3 SHL SWAP1 POP SWAP3 SWAP2 POP POP JUMP JUMPDEST PUSH0 PUSH1 0x8 DUP4 MUL PUSH2 0x7D4 PUSH32 0xFFFFFFFFFFFFFFFFFFFFFFFFFFFFFFFFFFFFFFFFFFFFFFFFFFFFFFFFFFFFFFFF DUP3 PUSH2 0x799 JUMP JUMPDEST PUSH2 0x7DE DUP7 DUP4 PUSH2 0x799 JUMP JUMPDEST SWAP6 POP DUP1 NOT DUP5 AND SWAP4 POP DUP1 DUP7 AND DUP5 OR SWAP3 POP POP POP SWAP4 SWAP3 POP POP POP JUMP JUMPDEST PUSH0 DUP2 SWAP1 POP SWAP2 SWAP1 POP JUMP JUMPDEST PUSH0 PUSH2 0x819 PUSH2 0x814 PUSH2 0x80F DUP5 PUSH2 0x3B0 JUMP JUMPDEST PUSH2 0x7F6 JUMP JUMPDEST PUSH2 0x3B0 JUMP JUMPDEST SWAP1 POP SWAP2 SWAP1 POP JUMP JUMPDEST PUSH0 DUP2 SWAP1 POP SWAP2 SWAP1 POP JUMP JUMPDEST PUSH2 0x832 DUP4 PUSH2 0x7FF JUMP JUMPDEST PUSH2 0x846 PUSH2 0x83E DUP3 PUSH2 0x820 JUMP JUMPDEST DUP5 DUP5 SLOAD PUSH2 0x7A5 JUMP JUMPDEST DUP3 SSTORE POP POP POP POP JUMP JUMPDEST PUSH0 SWAP1 JUMP JUMPDEST PUSH2 0x85A PUSH2 0x84E JUMP JUMPDEST PUSH2 0x865 DUP2 DUP5 DUP5 PUSH2 0x829 JUMP JUMPDEST POP POP POP JUMP JUMPDEST JUMPDEST DUP2 DUP2 LT ISZERO PUSH2 0x888 JUMPI PUSH2 0x87D PUSH0 DUP3 PUSH2 0x852 JUMP JUMPDEST PUSH1 0x1 DUP2 ADD SWAP1 POP PUSH2 0x86B JUMP JUMPDEST POP POP JUMP JUMPDEST PUSH1 0x1F DUP3 GT ISZERO PUSH2 0x8CD JUMPI PUSH2 0x89E DUP2 PUSH2 0x778 JUMP JUMPDEST PUSH2 0x8A7 DUP5 PUSH2 0x78A JUMP JUMPDEST DUP2 ADD PUSH1 0x20 DUP6 LT ISZERO PUSH2 0x8B6 JUMPI DUP2 SWAP1 POP JUMPDEST PUSH2 0x8CA PUSH2 0x8C2 DUP6 PUSH2 0x78A JUMP JUMPDEST DUP4 ADD DUP3 PUSH2 0x86A JUMP JUMPDEST POP POP JUMPDEST POP POP POP JUMP JUMPDEST PUSH0 DUP3 DUP3 SHR SWAP1 POP SWAP3 SWAP2 POP POP JUMP JUMPDEST PUSH0 PUSH2 0x8ED PUSH0 NOT DUP5 PUSH1 0x8 MUL PUSH2 0x8D2 JUMP JUMPDEST NOT DUP1 DUP4 AND SWAP2 POP POP SWAP3 SWAP2 POP POP JUMP JUMPDEST PUSH0 PUSH2 0x905 DUP4 DUP4 PUSH2 0x8DE JUMP JUMPDEST SWAP2 POP DUP3 PUSH1 0x2 MUL DUP3 OR SWAP1 POP SWAP3 SWAP2 POP POP JUMP JUMPDEST PUSH2 0x91E DUP3 PUSH2 0x40E JUMP JUMPDEST PUSH8 0xFFFFFFFFFFFFFFFF DUP2 GT ISZERO PUSH2 0x937 JUMPI PUSH2 0x936 PUSH2 0x51B JUMP JUMPDEST JUMPDEST PUSH2 0x941 DUP3 SLOAD PUSH2 0x6B3 JUMP JUMPDEST PUSH2 0x94C DUP3 DUP3 DUP6 PUSH2 0x88C JUMP JUMPDEST PUSH0 PUSH1 0x20 SWAP1 POP PUSH1 0x1F DUP4 GT PUSH1 0x1 DUP2 EQ PUSH2 0x97D JUMPI PUSH0 DUP5 ISZERO PUSH2 0x96B JUMPI DUP3 DUP8 ADD MLOAD SWAP1 POP JUMPDEST PUSH2 0x975 DUP6 DUP3 PUSH2 0x8FA JUMP JUMPDEST DUP7 SSTORE POP PUSH2 0x9DC JUMP JUMPDEST PUSH1 0x1F NOT DUP5 AND PUSH2 0x98B DUP7 PUSH2 0x778 JUMP JUMPDEST PUSH0 JUMPDEST DUP3 DUP2 LT ISZERO PUSH2 0x9B2 JUMPI DUP5 DUP10 ADD MLOAD DUP3 SSTORE PUSH1 0x1 DUP3 ADD SWAP2 POP PUSH1 0x20 DUP6 ADD SWAP5 POP PUSH1 0x20 DUP2 ADD SWAP1 POP PUSH2 0x98D JUMP JUMPDEST DUP7 DUP4 LT ISZERO PUSH2 0x9CF JUMPI DUP5 DUP10 ADD MLOAD PUSH2 0x9CB PUSH1 0x1F DUP10 AND DUP3 PUSH2 0x8DE JUMP JUMPDEST DUP4 SSTORE POP JUMPDEST PUSH1 0x1 PUSH1 0x2 DUP9 MUL ADD DUP9 SSTORE POP POP POP JUMPDEST POP POP POP POP POP POP JUMP INVALID LOG2 PUSH5 0x6970667358 0x22 SLT KECCAK256 0xCF 0x2F PUSH18 0xE3205DFB47216CCD9E64319D14FE44A34A3C 0xE LOG0 ADDRESS DUP7 0x2A DUP1 0xBE 0x24 0x4C PUSH13 0x3F64736F6C634300081A003300 "
				},
				"gasEstimates": {
					"creation": {
						"codeDepositCost": "517200",
						"executionCost": "547",
						"totalCost": "517747"
					},
					"external": {
						"getPost(uint256)": "infinite",
						"getTotalPosts()": "2462",
						"posts(uint256)": "infinite",
						"publishPost(string)": "infinite"
					}
				},
				"methodIdentifiers": {
					"getPost(uint256)": "40731c24",
					"getTotalPosts()": "5fe226b4",
					"posts(uint256)": "0b1e7f83",
					"publishPost(string)": "c5719463"
				}
			},
			"storageLayout": {
				"storage": [
					{
						"astId": 10,
						"contract": "MiniSocial.sol:MiniSocial",
						"label": "posts",
						"offset": 0,
						"slot": "0",
						"type": "t_array(t_struct(Post)6_storage)dyn_storage"
					}
				],
				"types": {
					"t_address": {
						"encoding": "inplace",
						"label": "address",
						"numberOfBytes": "20"
					},
					"t_array(t_struct(Post)6_storage)dyn_storage": {
						"base": "t_struct(Post)6_storage",
						"encoding": "dynamic_array",
						"label": "struct MiniSocial.Post[]",
						"numberOfBytes": "32"
					},
					"t_string_storage": {
						"encoding": "bytes",
						"label": "string",
						"numberOfBytes": "32"
					},
					"t_struct(Post)6_storage": {
						"encoding": "inplace",
						"label": "struct MiniSocial.Post",
						"members": [
							{
								"astId": 3,
								"contract": "MiniSocial.sol:MiniSocial",
								"label": "message",
								"offset": 0,
								"slot": "0",
								"type": "t_string_storage"
							},
							{
								"astId": 5,
								"contract": "MiniSocial.sol:MiniSocial",
								"label": "author",
								"offset": 0,
								"slot": "1",
								"type": "t_address"
							}
						],
						"numberOfBytes": "64"
					}
				}
			},
			"userdoc": {
				"kind": "user",
				"methods": {},
				"version": 1
			}
		}
	}
}